:020000040800F2
:1000000000500020051E0008D91B0008DB1B00085B
:10001000DD1B0008DF1B0008E11B000800000000DA
:10002000000000000000000000000000E31B0008CA
:10003000E51B000800000000E71B0008E91B0008A2
:100040004D1E00084D1E00084D1E00084D1E0008E4
:100050004D1E00084D1E00084D1E00084D1E0008D4
:100060004D1E00084D1E00084D1E00084D1E0008C4
:100070004D1E00084D1E00084D1E00084D1E0008B4
:100080004D1E00084D1E00084D1E00084D1E0008A4
:100090004D1E00084D1E00084D1E00084D1E000894
:1000A0004D1E00084D1E00084D1E00084D1E000884
:1000B0004D1E00084D1E00084D1E00084D1E000874
:1000C0004D1E00084D1E00084D1E00084D1E000864
:1000D0004D1E0008F11B0008011C00084D1E000801
:1000E0004D1E00084D1E00084D1E000800000000B7
:1000F0000000000000000000000000000000000000
:0C01000000000000000000005FF808F1A3
:10010C0010B5054C237833B9044B13B10448AFF345
:10011C0000800123237010BDCC00002000000000E3
:10012C00582D000808B5034B1BB103490348AFF326
:10013C00008008BD00000000D0000020582D0008F1
:10014C0010B504460E4B18784FF47A73B3FBF0F3EA
:10015C000C4A1068B0FBF3F000F048F968B90F2CAA
:10016C0001D901200AE0002221464FF0FF3000F0B7
:10017C00FBF8034B5C60002000E0012010BD00BFC9
:10018C00000000206400002008B5074A136843F003
:10019C0010031360032000F0D5F80020FFF7D0FF08
:1001AC0001F0F4FB002008BD00200240034A116856
:1001BC00034B1B780B441360704700BFAC09002045
:1001CC0000000020014B1868704700BFAC090020EC
:1001DC0038B50446FFF7F6FF0546B4F1FF3F02D0F1
:1001EC00044B1B781C44FFF7EDFF401BA042FAD3D5
:1001FC0038BD00BF00000020002800F0A18038B5F9
:10020C00044690F82030D3B12268136823F002031F
:10021C001360FFF7D7FF054623685A6812F0020FE8
:10022C0010D0FFF7CFFF401B0A28F5D9636A43F4BF
:10023C0000336362052384F82030012038BD01F0BF
:10024C00C7FBE1E71A6842F001021A60FFF7BAFF38
:10025C00054623685A6812F0010F0DD1FFF7B2FF63
:10026C00401B0A28F5D9636A43F400336362052303
:10027C0084F820300120E1E7227E012A3DD01A6863
:10028C0022F080021A60637E012B3BD02268136837
:10029C0023F040031360A37E012B39D0226813682E
:1002AC0023F020031360E37E012B37D02268136800
:1002BC0043F010031360237F012B35D022681368A1
:1002CC0023F008031360637F012B33D0226813687B
:1002DC0023F004031360A368E268134322691343F9
:1002EC00626913436268013A21681343CB610020B1
:1002FC006062012384F82030A0E71A6842F0800283
:10030C001A60C0E72268136843F040031360C2E729
:10031C002268136843F020031360C4E72268136853
:10032C0023F010031360C6E72268136843F0080338
:10033C001360C8E72268136843F004031360CAE72C
:10034C0001207047074AD36823F4E0631B041B0C9D
:10035C00000200F4E060184340F0BF6040F400304D
:10036C00D060704700ED00E030B4174BDB68C3F38E
:10037C000223C3F10704042C28BF04241D1D062DE1
:10038C0018D9033B4FF0FF3505FA04F421EA0401B8
:10039C00994005FA03F322EA0303194300280BDB07
:1003AC000901C9B200F1604000F5614080F800130A
:1003BC0030BC70470023E5E700F00F000901C9B21B
:1003CC00024B1954F4E700BF00ED00E014ED00E01F
:1003DC00002807DB00F01F02400901239340024A6A
:1003EC0042F82030704700BF00E100E00138B0F166
:1003FC00807F0AD2064B5860064AF02182F82310FF
:10040C000020986007221A6070470120704700BFD7
:10041C0010E000E000ED00E008B590F82130022B70
:10042C0003D004238363012008BD0268136823F002
:10043C000E0313600268136823F001031360036852
:10044C00194A934214D0143293421FD0143293425F
:10045C001ED0143293421ED0143293421ED014324A
:10046C00934202D04FF0807203E04FF4801200E010
:10047C0001220E4B5A60012380F82130002380F8B2
:10048C002030436B6BB198470020CDE71022F0E78A
:10049C004FF48072EDE74FF48052EAE74FF480326C
:1004AC00E7E70020C0E700BF080002400000024060
:1004BC00F0B482B000263246A2E0002D5AD0012DB5
:1004CC0000D1CE68FF2B69D88446FF2B69D89500E4
:1004DC00DCF800400F27AF4024EA070406FA05F5C4
:1004EC002C43CCF800404C6814F0805F00F08780FF
:1004FC005F4CA56945F00105A561A46904F00104F0
:10050C000194019C9508AF1C5A4C54F8274002F0FA
:10051C000307BF004FF00F0C0CFA07FC24EA0C0C7D
:10052C00554CA04243D004F58064A04200F0818079
:10053C0004F58064A0427ED004F58064A04234D0DF
:10054C00042435E04D4FBD4214D00BD94C4FBD4265
:10055C0010D007F58037BD420CD0A7F58017BD42EF
:10056C00B0D107E0A7F58017BD4203D007F580375F
:10057C00BD42A7D18D687DB1012D08D044610826FC
:10058C00A0E7CE6808369DE7CE680C369AE7046182
:10059C00082697E7002695E7042693E700F1040C5C
:1005AC0093E7A2F10805AD0092E7032400E00024D4
:1005BC00BC4044EA0C0402352E4F47F825404C68E9
:1005CC0014F4803F39D02F4D2C681C432C604C68A0
:1005DC0014F4003F37D02B4D6C681C436C604C6896
:1005EC0014F4801F35D0274DAC681C43AC604C68AC
:1005FC0014F4001F33D0234DEC682343EB6001321D
:10060C000B6833FA02F430D00124944023409C420E
:10061C00F5D14D68122DB7D094D8022DB1D07FF6FC
:10062C004CAF032DB6D0112D7FF44CAFCE680436F1
:10063C0048E70124BCE70224BAE7124D2C6824EAEF
:10064C0003042C60C3E70F4D6C6824EA03046C6050
:10065C00C5E70C4DAC6824EA0304AC60C7E7094D50
:10066C00EC6824EA0303EB60C9E702B0F0BC704706
:10067C000010024000000140000801400000211061
:10068C000000311000040140002800F0BE80F8B5D5
:10069C00044690F83D30002B6BD0242384F83D3079
:1006AC002268136823F00103136000F0CDFB62682D
:1006BC00584B9A4262D8584B98428CBF0023012366
:1006CC00002B40F0A480554BA3FB00239B0C21680E
:1006DC004A6822F03F021A434A6025682A6A22F0CF
:1006EC003F0266684B498E424ED8013313432B624E
:1006FC002568E96921F44F4121F0FF016368454AFF
:10070C0093424BD801385B00B0FBF3F30133C3F3D6
:10071C000B03042B38BF04230B43EB6121680B68DC
:10072C0023F0C003E269206A024313430B60216883
:10073C008B6823F4034323F0FF032269E068024330
:10074C0013438B602168CB6823F0FF036269A069B7
:10075C0002431343CB602268136843F00103136018
:10076C0000202064202384F83D30206384F83E0070
:10077C00F8BD80F83C3001F067F98EE7284B9842C1
:10078C008CBF002301239BE74FF4967101FB03F30D
:10079C002449A1FB03139B090133A7E7A268BAB94B
:1007AC00461E03EB4307B6FBF7F60136C6F30B0602
:1007BC00B6FA86F6760936BBC2B9013803EB4303A9
:1007CC00B0FBF3F30133C3F30B0242F40043A3E792
:1007DC00461E03EB830707EB8707B6FBF7F60136DC
:1007EC00C6F30B06B6FA86F67609E4E7013803EB96
:1007FC00830303EB8303B0FBF3F20132C2F30B026E
:10080C0042F4404388E7012386E70120704701202A
:10081C00AEE700BFA08601007F841E0083DE1B4371
:10082C00FF083D00D34D621082B0084B1B68084A8C
:10083C00A2FB03235B0A00FB03F0019000BF019BAA
:10084C005A1E0192002BF9D102B0704764000020AF
:10085C00D34D6210002800F0F58170B582B00446CB
:10086C00036813F0010F2CD0AB4B5B6803F00C0347
:10087C00042B1DD0A84B5B6803F00C03082B12D083
:10088C006368B3F5803F41D0002B55D103F1804311
:10089C0003F504331A6822F480321A601A6822F4C1
:1008AC0080221A6037E09C4B5B6813F4803FE7D0E2
:1008BC00994B1B6813F4003F03D06368002B00F0C6
:1008CC00C381236813F0020F76D0934B5B6813F04F
:1008DC000C0F5FD0904B5B6803F00C03082B54D0CB
:1008EC002369002B00F08A808C4B01221A60FFF7E1
:1008FC0069FC0546884B1B6813F0020F75D1FFF796
:10090C0061FC401B0228F5D90320A0E1824A136840
:10091C0043F480331360636843B3FFF753FC05461D
:10092C007D4B1B6813F4003FCBD1FFF74BFC401BF6
:10093C006428F5D903208AE1B3F5A02F09D0764BB2
:10094C001A6822F480321A601A6822F480221A6023
:10095C00E1E703F18043A3F53C331A6842F48022AB
:10096C001A601A6842F480321A60D4E7FFF72AFC46
:10097C000546694B1B6813F4003FA2D0FFF722FC1D
:10098C00401B6428F5D9032061E1634B5B6813F4C9
:10099C00803FA5D1604B1B6813F0020F04D0236974
:1009AC00012B01D0012052E15B4A136823F0F803BC
:1009BC00616943EAC1031360236813F0080F32D056
:1009CC00A369002B5BD0564B01221A60FFF7FAFB90
:1009DC000546514B5B6A13F0020F21D1FFF7F2FB76
:1009EC00401B0228F5D9032031E14B4A136823F050
:1009FC00F803616943EAC1031360DDE7474B00224A
:100A0C001A60FFF7DFFB0546434B1B6813F0020F20
:100A1C00D2D0FFF7D7FB401B0228F5D9032016E1F3
:100A2C000120FFF701FF236813F0040F00F09880FA
:100A3C00394BDB6913F0805F33D1374BDA6942F005
:100A4C008052DA61DB6903F080530193019B01252D
:100A5C00344B1B6813F4807F25D0E368012B36D010
:100A6C00002B4CD103F1804303F504331A6A22F0B6
:100A7C0001021A621A6A22F004021A622CE0284B54
:100A8C0000221A60FFF79EFB0546234B5B6A13F0AE
:100A9C00020FC8D0FFF796FB401B0228F5D90320A4
:100AAC00D5E00025D4E71F4A136843F48073136024
:100ABC00FFF788FB06461B4B1B6813F4807FCCD1D9
:100ACC00FFF780FB801B6428F5D90320BFE0124A96
:100ADC00136A43F001031362E3687BB3FFF772FB05
:100AEC0006460D4B1B6A13F0020F38D1FFF76AFB59
:100AFC00801B41F288339842F3D90320A7E0052BE1
:100B0C0012D0054B1A6A22F001021A621A6A22F0FC
:100B1C0004021A62E0E700BF0010024000004242EB
:100B2C0080044242007000404C4B1A6A42F00402AE
:100B3C001A621A6A42F001021A62CDE7FFF742FB11
:100B4C000646464B1B6A13F0020F08D0FFF73AFB20
:100B5C00801B41F288339842F3D9032077E0E5B942
:100B6C00E369002B72D03D4A526802F00C02082A4D
:100B7C0056D0022B17D03A4B00221A60FFF722FBFB
:100B8C000446364B1B6813F0007F47D0FFF71AFB67
:100B9C00001B0228F5D9032059E0304AD36923F011
:100BAC008053D361DCE72E4B00221A60FFF70AFB5F
:100BBC0005462A4B1B6813F0007F06D0FFF702FB9B
:100BCC00401B0228F5D9032041E0236AB3F5803F8E
:100BDC001AD022494B6823F47413226A606A0243C8
:100BEC0013434B601E4B01221A60FFF7EBFA0446CD
:100BFC001A4B1B6813F0007F0ED1FFF7E3FA001BB2
:100C0C000228F5D9032022E0144A536823F4003358
:100C1C00A1680B435360DCE7002018E0002016E0CD
:100C2C00012B16D00D4B5B6803F48031226A914284
:100C3C0001D001200BE003F47013626A93420AD0D6
:100C4C00012004E001207047012000E0002002B0E8
:100C5C0070BD0120FBE70020F9E700BF0010024047
:100C6C006000424210B487B0164C94E80F000DF1AE
:100C7C00180C0CE90F00238AADF80430124B5B689A
:100C8C0003F00C02082A1AD1C3F38342624412F80F
:100C9C00102C13F4803F05D10C4800FB02F007B078
:100CAC0010BC7047084B5B68C3F34043634413F8B4
:100CBC00143C074800FB02F0B0FBF3F0EFE70448EC
:100CCC00EDE700BF702D00080010024000093D0048
:100CDC0000127A00002800F0A38070B50446524B35
:100CEC001B6803F007038B420CD24F4A136823F0A6
:100CFC0007030B431360136803F007038B4201D007
:100D0C00012070BD236813F0020F17D013F0040FED
:100D1C0004D0464A536843F4E0635360236813F0ED
:100D2C00080F04D0414A536843F4605353603F4A60
:100D3C00536823F0F003A068034353600D46236807
:100D4C0013F0010F31D06368012B20D0022B25D07A
:100D5C00364A126812F0020F64D034494A6822F005
:100D6C00030213434B60FFF72DFA06462F4B5B68CB
:100D7C0003F00C036268B3EB820F16D0FFF722FA74
:100D8C00801B41F288339842F0D90320B9E7274AF7
:100D9C00126812F4003FE0D10120B2E7234A126836
:100DAC0012F0007FD9D10120ABE71F4B1B6803F079
:100DBC000703AB420CD91C4A136823F007032B43DF
:100DCC001360136803F00703AB4201D0012098E7CE
:100DDC00236813F0040F06D0144A536823F4E0631D
:100DEC00E1680B435360236813F0080F07D00F4AD8
:100DFC00536823F46053216943EAC1035360FFF73E
:100E0C0031FF0A4B5B68C3F30313094AD35CD84028
:100E1C00084B1860084B1868FFF792F9002070E730
:100E2C000120704701206CE70020024000100240B6
:100E3C00102E00086400002004000020014B1868EC
:100E4C00704700BF6400002008B5FFF7F7FF044BA4
:100E5C005B68C3F30223034AD35CD84008BD00BFD0
:100E6C0000100240202E000808B5FFF7E7FF044BE6
:100E7C005B68C3F3C223034AD35CD84008BD00BFF0
:100E8C0000100240202E000810B4036A046A24F0FB
:100E9C0001040462846924F0F00444EA021223F091
:100EAC000A030B438261036210BC704710B4036ADF
:100EBC0023F0100303628469036A24F4704444EA47
:100ECC00023223F0A00343EA01138261036210BCD7
:100EDC007047836823F07003194341F00701816068
:100EEC007047022380F83D300268936803F00703D3
:100EFC00062B03D0136843F001031360012380F821
:100F0C003D3000207047000003681B4A90420AD015
:100F1C00B0F1804F07D0A2F59432904203D002F585
:100F2C008062904203D123F070034A681343124A43
:100F3C0090420AD0B0F1804F07D0A2F59432904283
:100F4C0003D002F58062904203D123F44073CA6847
:100F5C00134323F080034A69134303608B68C36215
:100F6C000B688362044B984202D0012343617047A3
:100F7C000B690363F9E700BF002C0140A8B110B561
:100F8C00044690F83D305BB1022384F83D30211DBE
:100F9C002068FFF7B9FF012384F83D30002010BD15
:100FAC0080F83C3000F082FDEEE70120704710B471
:100FBC00846824F47F4442EA03230B432343836075
:100FCC0010BC704790F83C30012B66D010B504462D
:100FDC00012380F83C30022380F83D30026893688E
:100FEC0023F47F4323F0770393600B68402B4AD0A4
:100FFC0013D9602B3DD01ED9702B28D0B3F5005FD0
:10100C0030D1CB684A6889680068FFF7D0FF226846
:10101C00936843F48043936024E0102B06D004D9EA
:10102C00202B03D0302B01D01CE0DBB919462068F3
:10103C00FFF74FFF16E0502B14D1CA6849680068BF
:10104C00FFF722FF50212068FFF743FF0AE0CB682F
:10105C004A6889680068FFF7AAFF2268936843F022
:10106C0077039360012384F83D30002084F83C0022
:10107C0010BDCA6849680068FFF718FF6021206836
:10108C00FFF727FFEEE7CA6849680068FFF7FCFE28
:10109C0040212068FFF71DFFE4E70220704790F81D
:1010AC003C30012B1CD070B4012680F83C6002232C
:1010BC0080F83D3002685568936825F070050C681F
:1010CC002C4323F080054B682B43546002689360DB
:1010DC0080F83D60002380F83C30184670BC7047A7
:1010EC00022070470268D36823F49073D3600268BF
:1010FC00536923F001035361202380F83A30704781
:10110C0090F83930DBB2212B2AD18368B3F5805F9C
:10111C0016D0036A5A1C02621A7803685A60C38C90
:10112C00013B9BB2C384EBB90268D36823F0800304
:10113C00D3600268D36843F04003D360002070474B
:10114C00036A1B880268C3F30803536003691BB965
:10115C00036A02330362E2E7036A01330362DEE7E8
:10116C00022070470020704738B5044602681369A6
:10117C0023F44053C1680B43136183680269134322
:10118C0042691A430168CB6823F4B05323F00C0373
:10119C001343CB600268536923F4407381690B439A
:1011AC0053610268214B9A421FD0FFF74DFE00EBB2
:1011BC00800000EB800063689B00B0FBF3F01C4DDB
:1011CC00A5FB00325109642202FB110213013233D8
:1011DC00A5FB03235B0903F0F00202EB011203F001
:1011EC000F03216813448B6038BDFFF73DFE00EB05
:1011FC00800000EB800063689B00B0FBF3F00C4DAB
:10120C00A5FB00325109642202FB11021301323397
:10121C00A5FB03235B0903F0F00202EB011203F0C0
:10122C000F03216813448B60DEE700BF00380140D8
:10123C001F85EB5158B310B5044690F839300BB3F9
:10124C00242384F839302268D36823F40053D36004
:10125C002046FFF789FF2268136923F4904313613A
:10126C002268536923F02A0353612268D36843F43C
:10127C000053D3600020E063202384F8393084F8D5
:10128C003A3010BD80F8383000F026FCD8E7012049
:10129C00704790F83930DBB2202B16D1B9B1C2B1FE
:1012AC0090F83830012B16D001628284C28400235E
:1012BC00C363212280F8392080F838300168CA686D
:1012CC0042F08002CA601846704702207047012025
:1012DC007047012070470220704790F83A30DBB21B
:1012EC00202B20D109B312B390F83830012B20D029
:1012FC0081628285C2850023C363222280F83A2052
:10130C0080F838300168CA6842F48072CA6001689B
:10131C004A6942F001024A610168CA6842F020023F
:10132C00CA601846704702207047012070470120A0
:10133C0070470220704708B50168CB6823F0400362
:10134C00CB60202380F8393000F036FD002008BD3A
:10135C0008B590F83A30DBB2222B45D18368B3F54F
:10136C00805F0ED0036903BB03685A68836A591CFB
:10137C0081621A70C38D013B9BB2C385F3B100200F
:10138C0033E0826A036943B903685B68C3F30803FB
:10139C001380836A02338362ECE703685B68DBB219
:1013AC001380836A01338362E4E703685B68826AB3
:1013BC00511C816203F07F031370DBE70268D36872
:1013CC0023F02003D3600268D36823F48073D360C6
:1013DC000268536923F001035361202380F83A30EB
:1013EC0000F0D0FC002000E0022008BD7047000097
:1013FC0010B5044602681368D168526913F00F00E7
:10140C0005D113F0200F02D011F0200F53D100287A
:10141C0067D012F0010202D111F4907F61D013F069
:10142C00010F06D011F4807F03D0E06B40F0010077
:10143C00E06313F0040F04D01AB1E06B40F002002B
:10144C00E06313F0020F04D01AB1E06B40F004001B
:10145C00E06313F0080F04D01AB1E26B42F00802FB
:10146C00E263E26B002A48D013F0200F02D011F097
:10147C00200F24D123685B6903F04003E26B12F068
:10148C00080F00D13BB32046FFF72CFE23685A69A6
:10149C0012F0400F1BD05A6922F040025A61636B64
:1014AC008BB11A4A5A63606BFEF7B6FF28B3606BB8
:1014BC00436B984721E02046FFF74AFF1DE020468A
:1014CC00FFF746FFD6E72046FFF790FF15E02046D2
:1014DC00FFF78CFF11E02046FFF788FF0023E36342
:1014EC000BE013F0800F02D011F0800F06D113F037
:1014FC00400F02D011F0400F04D110BD2046FFF771
:10150C00FFFDFAE72046FFF716FFF6E71D1500086A
:10151C0008B5406A0023C385C384FFF767FF08BD85
:10152C0000210B46022917DC10B405E013449BB2D2
:10153C0009E0013102290BDC425CD418A342F5DD31
:10154C00A3B201339BB2FF2BF3D9FF3B9BB2F0E765
:10155C00D843C0B210BC7047C843C0B2704700B586
:10156C0083B000238DF8043055238DF800300A2306
:10157C008DF801308DF802008DF8031003210DF168
:10158C000100FFF7CDFF8DF804000521684600F03F
:10159C00A7FB03B05DF804FB00B583B000230193F7
:1015AC0055238DF80430072811D009281AD00528A6
:1015BC0002D003B05DF804FB05238DF80530FA2347
:1015CC008DF80630032101A800F08AFBF1E7072310
:1015DC008DF80530F8238DF80630032101A800F0B2
:1015EC007FFBE6E709238DF805308DF80610022104
:1015FC000DF10500FFF794FF8DF8070004210DEBAA
:10160C00010000F06DFBD4E710B507280AD00928BB
:10161C000AD005280AD00021054C204600F09AFB80
:10162C00204610BD8221F7E70321F5E70621F3E7F9
:10163C00E800002038B50024254602E0402501349E
:10164C00E4B25A2C10D83C20FEF7C2FD1F4B195D9A
:10165C002846FFF784FF2B2DF0D04D2D02D00135FD
:10166C00EDB2ECE75F25EAE74C210920FFF794FF88
:10167C000120FEF7ADFD0920FFF7C6FF0278437885
:10168C0013F00F0318BF0123402A18BF43F00103C6
:10169C00CBB94D210920FFF77FFF0120FEF798FD04
:1016AC000920FFF7B1FF0278437813F07F0318BFCE
:1016BC000123402A18BF43F001030BB9002038BDA9
:1016CC004FF0FF30FBE74FF0FF30F8E70800002049
:1016DC0010B5044615234360FFF750FC38B920467B
:1016EC00FFF7FFFB80214020FFF739FF10BD00F012
:1016FC00F3F8F4E7704772B6704762B670470000B3
:10170C0082B00A4B9A6942F004029A619A6902F01B
:10171C0004020092009A9A6942F008029A619B694D
:10172C0003F008030193019B02B0704700100240C4
:10173C0008B50848084B03604FF4E13343600023BD
:10174C008360C36003610C2242618361C361FFF754
:10175C0071FD08BD300A00200038014008B508486A
:10176C00084B03604FF4E133436000238360C36094
:10177C0003610C2242618361C361FFF75BFD08BD0D
:10178C00B40A00200044004008B50B480B4B036022
:10179C000823436000238360C3604FF4302202614E
:1017AC004FF480124261037643768376C3760377D7
:1017BC004377FEF721FD08BD080A002000640040B5
:1017CC0008B50948094B0360094B4360002383604B
:1017DC00C3604FF48042026143618361C361036261
:1017EC00FEF752FF08BD00BFB409002000540040B2
:1017FC00A086010030B587B00024029403940494B1
:10180C000594009401940E4D0E4B2B6015236B60C8
:10181C00AC60EC602C616C61AC612846FFF7AEFBF0
:10182C004FF48053029302A92846FFF7CBFB009498
:10183C00019469462846FFF732FC07B030BD00BF63
:10184C00740A0020002C014030B591B020220021F8
:10185C0007A800F051FB0024019402940394049413
:10186C0005940225069501230A9310230B930D95DD
:10187C004FF450130F9306A8FEF7ECFF0F230193C0
:10188C00029503944FF4A06304930594294601A890
:10189C00FFF720FA11B030BD08B5FEF775FCFFF765
:1018AC00D3FFFFF72DFFFFF743FFFFF757FFFFF7BE
:1018BC006BFFFFF785FFFFF79DFFFFF7BBFE0448AB
:1018CC00FFF706FF034B586A80B2FFF713FFF9E7E7
:1018DC00740A0020002C01407047000008B598B134
:1018EC00034600691A68904217DA58689A6881545E
:1018FC0099681A68013A91420CD0013199601A69C1
:10190C0001321A61012008BD054B064A4F210648D9
:10191C0000F098FA00229A60F1E70020F3E700BF8C
:10192C00782E0008E82D0008842E000808B5A0B118
:10193C000346C1B10269002A1EDD4068DA68825C88
:10194C000A70D9681A68013A914212D00131D960F3
:10195C001A69013A1A61012008BD084B084A632133
:10196C00084800F06FFA084B054A6421054800F05E
:10197C0069FA0022DA60EBE70020EDE7782E000828
:10198C00FC2D0008842E0008BC2E000882B00E4BE3
:10199C009A6942F001029A619A6902F0010200927E
:1019AC00009ADA6942F08052DA61DB6903F0805305
:1019BC000193019B054A536823F0E06343F00073E5
:1019CC00536002B0704700BF00100240000001409D
:1019DC0030B587B0002302930393049305930268F8
:1019EC00174B9A4201D007B030BD03F5D633DA69F4
:1019FC0042F00072DA61DA6902F000720092009A29
:101A0C009A6942F004029A619B6903F00403019302
:101A1C00019B06AC4FF4006344F8103D094D214680
:101A2C002846FEF745FD4FF480530293022303939F
:101A3C000323059321462846FEF73AFDD3E700BF62
:101A4C00006400400008014010B586B000230293EA
:101A5C000393049305930268114B9A4201D006B08C
:101A6C0010BD104CA36943F00803A361A36903F0F4
:101A7C0008030093009BC0230293122303930323B8
:101A8C00059302A90848FEF713FDE36943F400131C
:101A9C00E361E36903F400130193019BDFE700BFEB
:101AAC000054004000100240000C01400268094B39
:101ABC009A4200D0704782B003F564439A6942F4AD
:101ACC0000629A619B6903F400630193019B02B06D
:101ADC00704700BF002C014030B589B0002304933F
:101AEC000593069307930368344A934204D0344A0F
:101AFC00934233D009B030BD324B9A6942F48042E4
:101B0C009A619A6902F480420092009A9A6942F0B2
:101B1C0004029A619B6903F004030193019B4FF447
:101B2C00007304930223059303230793264D04A902
:101B3C002846FEF7BDFC4FF4806304930024059403
:101B4C00069404A92846FEF7B3FC2246214625201C
:101B5C00FEF70AFC2520FEF73BFCCBE7194BDA69B4
:101B6C0042F40032DA61DA6902F400320292029A2B
:101B7C009A6942F004029A619B6903F0040303938F
:101B8C00039B0423049302230593032307930E4D15
:101B9C0004A92846FEF78CFC082304930024059422
:101BAC00069404A92846FEF783FC224621462620EB
:101BBC00FEF7DAFB2620FEF70BFC9BE70038014012
:101BCC000044004000100240000801407047FEE74E
:101BDC00FEE7FEE7FEE770477047704708B5FEF773
:101BEC00E5FA08BD08B50248FFF702FC08BD00BFC6
:101BFC00300A002008B50248FFF7FAFB08BD00BF09
:101C0C00B40A00200120704708B500F039F91623FA
:101C1C0003604FF0FF3008BD08B54FF0FF31FFF700
:101C2C00F3FFFEE770B50D461646002404E0AFF353
:101C3C000080287001340135B442F8DB304670BDA9
:101C4C0008B503460B4A126842B10A4A10680344AD
:101C5C006A46934206D8074A136008BD054A0649EE
:101C6C001160F2E700F00CF90C2303604FF0FF3029
:101C7C00F3E700BF6C010020F80A00204FF0FF30A2
:101C8C0070474FF400534B600020704701207047A1
:101C9C00002070470F4B1A6842F001021A60596815
:101CAC000D4A0A405A601A6822F0847222F480327B
:101CBC001A601A6822F480221A605A6822F4FE0212
:101CCC005A604FF41F029A60044B4FF000629A6006
:101CDC00704700BF001002400000FFF800ED00E06C
:101CEC0070B506460D460024AC420ED2FFF703FD3C
:101CFC00315D1248FFF7F2FD18B1FFF7FEFC01341D
:101D0C00F2E7FFF7FAFC002406E0FFF7F4FC0B4BBC
:101D1C001B7D1BB1FFF7F1FC204670BD074D05F193
:101D2C00150631462846FFF701FE012231460448CC
:101D3C00FFF7AFFA01232B75ECE700BF740100200D
:101D4C00B40A002010B5084614461146FFF7C8FF28
:101D5C00204610BD70B506460D460024AC420CD290
:101D6C00FFF7C9FC31190648FFF7E0FD18B1FFF782
:101D7C00C4FC0134F2E7FFF7C0FC204670BD00BF85
:101D8C008C01002002680A4B1B689A4200D07047F5
:101D9C0010B5084C94F82C1004F11800FFF79EFDB8
:101DAC00012204F12C010248FFF797FA10BD00BF85
:101DBC00B40A00207401002002680D4B1B689A4283
:101DCC0000D0704710B50B4800F12D01FFF7AEFDA8
:101DDC0018B9084B00221A7510BD064C012204F1EB
:101DEC002D010348FFF755FA01232375F4E700BFD3
:101DFC00B40A002074010020002103E00B4B5B5857
:101E0C00435004310A480B4B42189A42F6D30A4A03
:101E1C0002E0002342F8043B084B9A42F9D3FFF747
:101E2C0039FF00F045F8FFF737FD70479C2F00088D
:101E3C0000000020CC000020CC000020F80A00207C
:101E4C00FEE700001FB51C46094B05461B68D86809
:101E5C0052B1084BCDE9013200912B46224606497E
:101E6C0000F014F800F0D6FB044B1A46F2E700BF62
:101E7C0068000020C02E0008CD2E0008FB2E0008A4
:101E8C00014B1868704700BF680000200EB403B502
:101E9C00014603AB054853F8042B0068019300F08E
:101EAC005BF802B05DF804EB03B0704768000020EB
:101EBC0070B500250C4E0D4CA41BA410A54209D1E5
:101ECC0000F044FF00250A4E0A4CA41BA410A542A6
:101EDC0005D170BD56F8253098470135EEE756F818
:101EEC00253098470135F2E7942F0008942F00080D
:101EFC00942F0008982F000803460244934200D107
:101F0C00704703F8011BF9E7936810B4013B002BF1
:101F1C00936007DA9469A34201DB0A2902D110BC51
:101F2C0000F0B8BA1368581C10601970084610BC41
:101F3C007047F8B506460F461446D518AC4201D189
:101F4C00002007E03A4614F8011B3046FFF7DCFF8F
:101F5C00431CF3D1F8BD00002DE9F04F0C469DB0A9
:101F6C0017461D46064618B183690BB900F04AFCAA
:101F7C007C4B9C4258D17468A38918075ED52369A1
:101F8C00002B5BD00023099320238DF829303023BC
:101F9C004FF0010B8DF82A300395B846454615F8DD
:101FAC00013B0BB1252B54D1B8EB070A0BD0534690
:101FBC003A4621463046FFF7BCFF013000F0C280A4
:101FCC00099B5344099398F80030002B00F0BA8019
:101FDC0000234FF0FF32CDE90523049307938DF8CE
:101FEC0053301A93A846052218F8011B5E4800F0DE
:101FFC00F7FC049B78BBD90644BF20228DF85320F4
:10200C001A0744BF2B228DF853202A782A2A2AD06B
:10201C00A84600200A25079A414611F8013B303B9F
:10202C00092B69D960B324E0504B9C4201D1B468B0
:10203C00A2E74F4B9C4208BFF4689DE7214630460F
:10204C0000F07AFA00289DD04FF0FF301DB0BDE8AB
:10205C00F08FA846A2E7444A4546801A0BFA00F0D6
:10206C0018430490BEE7039A111D12680391002ACD
:10207C0001DB079204E0524243F0020307920493FF
:10208C0098F800302E2B0ED198F801302A2B38D12D
:10209C00039B08F102081A1D1B680392002BB8BFA2
:1020AC004FF0FF330593334D032298F80010284668
:1020BC0000F096FC40B14023401B03FA00F0049B57
:1020CC0008F101080343049398F8001006222A48EB
:1020DC0008F101078DF8281000F082FC002837D099
:1020EC00264B1BBB039B073323F0070308330393D7
:1020FC00099B4B44099350E705FB023201208846AB
:10210C008AE700230A25194608F101080593404681
:10211C0010F8012B303A092A03D9002BC3D00591B2
:10212C00C1E705FB012101238046F0E703AB0093D7
:10213C002246134B04A93046AFF30080B0F1FF3FA9
:10214C008146D5D1A3895B063FF57EAF09987DE723
:10215C0003AB009322460A4B04A9304600F088F8E2
:10216C00ECE700BF542F0008002F0008742F000864
:10217C00342F0008062F00080A2F0008000000006A
:10218C003F1F00082DE9F04791461F468A680B69EE
:10219C0006469342B8BF1346C9F8003091F8432065
:1021AC000C46DDF8208012B10133C9F800302368E9
:1021BC00990642BFD9F800300233C9F800302568BF
:1021CC0015F0060507D104F1190AE368D9F80020C7
:1021DC009B1AAB4229DC94F843302268003318BFB9
:1021EC00012392062ED404F1430239463046C047EF
:1021FC00013021D02368E56803F00603042B18BFD7
:10220C000025D9F800204FF0000908BFAD1AA368CB
:10221C00226908BF25EAE5759342C4BF9B1AED18E5
:10222C001A344D451AD1002008E001235246394694
:10223C003046C047013003D14FF0FF30BDE8F08786
:10224C000135C2E73020E11881F843005A1C94F89C
:10225C0045102244023382F84310C4E7012322467E
:10226C0039463046C0470130E6D009F10109D8E7BC
:10227C002DE9F04301F1430C0C46097E85B06E2923
:10228C001746064698460C9A00F0B38022D863296C
:10229C0036D00AD8002900F0B980582900F0838084
:1022AC0004F1420584F8421032E0642901D0692916
:1022BC00F6D120681368050603F104012AD51B68C2
:1022CC001160002B03DA2D225B4284F843206F4807
:1022DC000A2239E0732900F09D8008D86F2920D09C
:1022EC007029DDD1236843F02003236003E07529B6
:1022FC0017D07829D4D17823654884F8453055E037
:10230C00136804F14205191D1B68116084F84230F2
:10231C0001238CE01B6810F0400F116018BF1BB23A
:10232C00CFE713682568181D1060280601D51B68B7
:10233C0002E06806FBD51B886F2914BF0A2208220D
:10234C005248002184F843106568002DA560C0F246
:10235C009580216821F004012160002B3DD1002DD6
:10236C0040F08E806546082A0BD12368DB0708D520
:10237C00236962689A42DEBF302305F8013C05F1FF
:10238C00FF35ACEB05032361CDF800803B4603AA77
:10239C0021463046FFF7F6FE01304DD14FF0FF30AD
:1023AC0005B0BDE8F083394884F8451013682168FE
:1023BC001D1D1B6815600A060BD5CA0744BF41F0EA
:1023CC00200121601BB9226822F020022260102219
:1023DC00B7E74D0648BF9BB2EFE76546B3FBF2F19A
:1023EC0002FB1133C35C05F8013D0B460029F5D106
:1023FC00B9E713682568181D6169106028061B6809
:10240C0001D5196002E06A06FBD5198000236546E8
:10241C002361B9E71368191D11601D6862680021FA
:10242C00284600F0DDFA08B1401B60606368236148
:10243C00002384F84330A7E723692A4639463046FF
:10244C00C0470130AAD023689B0713D4E068039BD4
:10245C009842B8BF1846A3E701234A46394630468E
:10246C00C04701309AD00135E368039A9B1AAB42FE
:10247C00F2DCEBE7002504F11909F5E7002BACD1F0
:10248C00037804F1420584F842306CE7112F000800
:10249C00222F0008F8B50E461446054618B183697C
:1024AC000BB900F0AFF9214B9C422AD16C68A3699F
:1024BC00A360A3891A072ED5236963B32369206807
:1024CC00F6B2C01A63693746834204DC21462846BB
:1024DC0000F02EF928BBA3680130013BA3602368F0
:1024EC005A1C22601E706369834204D0A389DB07E7
:1024FC0019D50A2E17D12146284600F019F990B1AA
:10250C000FE00B4B9C4201D1AC68D0E7094B9C42CD
:10251C0008BFEC68CBE72146284600F00DF80028F0
:10252C00CCD04FF0FF373846F8BD00BF542F000811
:10253C00742F0008342F0008324B70B51D68064606
:10254C000C4625B1AB6913B9284600F05BF92E4B4C
:10255C009C420FD16C68B4F90C309AB215072CD48C
:10256C00D00611D40922326043F04003A3814FF00E
:10257C00FF303EE0254B9C4201D1AC68EBE7244B8D
:10258C009C4208BFEC68E6E7510712D5616B41B17C
:10259C0004F14403994202D0304600F02FFA002394
:1025AC006363A38923F02403A3810023636023695D
:1025BC002360A38943F00803A38123694BB9A38942
:1025CC0003F42073B3F5007F03D02146304600F0AE
:1025DC00C7F9A28912F001030CD00023A360636930
:1025EC005B42A361236953B9B4F90C3013F080003A
:1025FC00BAD170BD920758BF6369A360F2E700209F
:10260C00F7E700BF68000020542F0008742F000863
:10261C00342F000808B5062000F0CEFA0120FFF791
:10262C00FBFA00008A892DE9F041054610070C469B
:10263C0058D44B68002B05DC0B6C002B02DC002003
:10264C00BDE8F081E66A002EF9D0002312F4805226
:10265C002F68216A2B6032D0606DA3895A0705D58B
:10266C006368C01A636B0BB1236CC01A002302465B
:10267C00E66A216A2846B047431CA38906D129681B
:10268C001D2948D8294ACA40D60744D50022626081
:10269C002269D904226004D5421C01D12B6803B9EC
:1026AC006065616B2F600029C9D004F14403994225
:1026BC0002D0284600F0A2F900206063C0E7012395
:1026CC002846B047411CC8D12B68002BC5D01D2B08
:1026DC0001D0162B01D12F60B1E7A38943F0400341
:1026EC00A381ADE70F69002FA9D0930718BF002372
:1026FC000E6808BF4B69A6EB07080F608B60B8F13A
:10270C00000F9CDD43463A46216A2846A66AB0472C
:10271C00002806DCA38943F04003A3814FF0FF306F
:10272C008EE70744A8EB0008E9E700BF0100402052
:10273C0038B50B6905460C46DBB118B183690BB98A
:10274C0000F060F80C4B9C4209D16C68B4F90C3069
:10275C007BB121462846BDE83840FFF763BF074BE5
:10276C009C4201D1AC68F1E7054B9C4208BFEC6878
:10277C00ECE7002038BD00BF542F0008742F000870
:10278C00342F0008002310B50446C0E900338360E1
:10279C0081814366C281C0E90433836119460822F2
:1027AC005C30FFF7A9FB054B24626362044BA36208
:1027BC00044BE362044B236310BD00BFFD2B0008E8
:1027CC001F2C0008572C00087B2C0008014900F036
:1027DC0085B800BF3D27000870B568254A1E5543D3
:1027EC000E4605F1740100F055F9044640B1002184
:1027FC00C0E900160C30A06005F16802FFF77CFB05
:10280C00204670BD836910B5044633BBC0E9123352
:10281C000365124B124A1B688262984204BF012363
:10282C00836100F01FF86060204600F01BF8A06088
:10283C00204600F017F80022E06004216068FFF7E2
:10284C00A1FF01220921A068FFF79CFF022212219F
:10285C00E068FFF797FF0123A36110BDFC2E000871
:10286C00D9270008F8B51B4B07461E68B36913B986
:10287C003046FFF7C7FF4836D6E90134013B03D594
:10288C00336833B13668F7E7B4F90C506DB168347E
:10289C00F4E704213846FFF79FFF30600028F1D1A0
:1028AC000C2304463B602046F8BD0B4B6566C4E91F
:1028BC000055A560C4E90335C4E90555082229462D
:1028CC0004F15C00FFF718FBC4E90D55C4E912557F
:1028DC00E9E700BFFC2E00080100FFFF2DE9F843DB
:1028EC0080468946002600F1480414B93046BDE8FC
:1028FC00F883D4E90175013F01D52468F5E7AB896C
:10290C00012B07D9B5F90E30013303D029464046C7
:10291C00C84706436835EEE770B50E46B1F90E10A0
:10292C0096B0002914461D4607DA00232B60B389A4
:10293C001A0610D44FF480630EE06A4600F0BEF91C
:10294C000028F2DB019A02F47042A2F500535A42BD
:10295C005A412A60EEE740230020236016B070BD78
:10296C008B8973B59D0706460C4607D504F14703C2
:10297C00236023610123636102B070BD01AB6A4621
:10298C00FFF7CAFF00990546304600F083F848B9B6
:10299C00B4F90C309A05EFD423F0030343F002038F
:1029AC00A381E3E70D4BB362A389206043F080035E
:1029BC00A381009B20616361019B5BB1B4F90E1094
:1029CC00304600F08DF928B1A38923F0030343F0BE
:1029DC000103A381A3891D43A581CDE7D927000855
:1029EC0010B5C9B202449042034601D1002303E062
:1029FC001C7801308C42F6D1184610BD38B505460E
:102A0C00002943D051F8043C0C1F002BB8BFE4182C
:102A1C0000F088F91E4A1368104633B963601460DD
:102A2C002846BDE8384000F07EB9A3420BD9216896
:102A3C006218934201BF1A685B6852182260636087
:102A4C000460EDE713465A680AB1A242FAD9196834
:102A5C005818A0420BD120680144581882421960C2
:102A6C00DED110685268014419605A60D8E702D967
:102A7C000C232B60D4E7206821188A4201BF11680F
:102A8C0052680918216062605C60C9E738BD00BFFC
:102A9C00A409002070B5CD1C25F0030508350C2DBC
:102AAC0038BF0C25002D064601DBA94203D90C23A7
:102ABC003360002070BD00F035F9214A14682146BE
:102ACC0091B9204C23681BB9304600F03DF82060CA
:102ADC002946304600F038F8431C24D10C233046EC
:102AEC00336000F020F9E4E70B685B1B18D40B2B68
:102AFC000FD90B60CC18CD50304600F014F904F10E
:102B0C000B00231D20F00700C31AD3D05A42E25009
:102B1C00D0E74B688C4216BF636013600C46EBE742
:102B2C000C464968CCE7C41C24F00304A04205D031
:102B3C00211A304600F008F80130CFD02560DBE7D1
:102B4C00A4090020A809002038B50023054C05462F
:102B5C0008462360FFF774F8431C02D1236803B1C5
:102B6C002B6038BDF40A00201F2938B504460D46E9
:102B7C0004D9162303604FF0FF3038BD426C12B1FC
:102B8C0052F821304BB9204600F030F82A46014665
:102B9C002046BDE8384000F017B8012B0AD0591C6C
:102BAC0003D1162303600120E7E70024284642F8EE
:102BBC00254098470020E0E7024B01461868FFF7D4
:102BCC00D3BF00BF6800002038B50023064C054673
:102BDC00084611462360FFF717F8431C02D12368FF
:102BEC0003B12B6038BD00BFF40A0020FFF70AB810
:102BFC0010B50C46B1F90E1000F096F80028ABBFDA
:102C0C00636DA3891B1823F48053ACBF6365A38148
:102C1C0010BD2DE9F0411F468B890546DB050C469E
:102C2C00164605D502230022B1F90E1000F068F803
:102C3C00A389324623F48053A381B4F90E103B468A
:102C4C002846BDE8F04100F017B810B50C46B1F9B4
:102C5C000E1000F055F8431CA38915BF606523F4D2
:102C6C00805343F48053A38118BFA38110BDB1F9E5
:102C7C000E1000F013B8000038B505460846114692
:102C8C000022054C22601A46FFF75CF8431C02D167
:102C9C00236803B12B6038BDF40A002038B500233B
:102CAC00054C054608462360FEF7E8FF431C02D19D
:102CBC00236803B12B6038BDF40A002038B500231B
:102CCC00064C0546084611462360FEF7DAFF431C06
:102CDC0002D1236803B12B6038BD00BFF40A002079
:102CEC0038B50023054C054608462360FEF7CEFF99
:102CFC00431C02D1236803B12B6038BDF40A0020B9
:102D0C0038B50546084611460022054C22601A4685
:102D1C00FEF7BEFF431C02D1236803B12B6038BD04
:102D2C00F40A00207047704738B50546084611462E
:102D3C000022054C22601A46FEF774FF431C02D198
:102D4C00236803B12B6038BDF40A0020F8B500BF2E
:102D5C00F8BC08BC9E467047F8B500BFF8BC08BC70
:042D6C009E467047C8
:102D700002030405060708090A0B0C0D0E0F1010BC
:102D80000102000052696E674275666665725F49AE
:102D90006E69740052696E674275666665725F435C
:102DA0006C6561720000000052696E67427566666C
:102DB00065725F4973456D707479000052696E6782
:102DC0004275666665725F4765744C656E0000000B
:102DD00052696E674275666665725F4765744361E6
:102DE000706163697479000052696E674275666646
:102DF00065725F50757443686172000052696E6756
:102E00004275666665725F4765744368617200006B
:102E1000000000000000000001020304060708098A
:102E20000000000001020304415353455254204561
:102E300052524F5220696E2066696C6520257320BE
:102E40006174206C696E652025642E0A4578707265
:102E5000657373696F6E3A2025730A476F696E67F1
:102E600020696E746F20696E66696E697465206C86
:102E70006F6F702E0A00000072696E674275666699
:102E8000657200002E2E2F5372632F72696E675F7A
:102E90006275666665722E6300000000646174618D
:102EA00042756666657200006461746142756666AB
:102EB000657253697A65203E20300000630000008F
:102EC0002C2066756E6374696F6E3A2000617373AF
:102ED000657274696F6E2022257322206661696CA9
:102EE00065643A2066696C6520222573222C206C6B
:102EF000696E65202564257325730A006C00002027
:102F0000232D302B2000686C4C00656667454647D2
:102F10000030313233343536373839414243444555
:102F200046003031323334353637383961626364C4
:102F300065660000000000000000000000000000C6
:102F40000000000000000000000000000000000081
:102F50000000000000000000000000000000000071
:102F60000000000000000000000000000000000061
:102F70000000000000000000000000000000000051
:102F80000000000000000000000000000000000041
:042F9000000000003D
:042F940031010008FF
:042F98000D0100081F
:102F9C000100000010000000000000000000000014
:102FAC0000000000000000000000000096AAAA61CA
:102FBC0086186040328001107F402900EE7C4F0063
:102FCC000018185000858DF9A5032D7E6700CD00E3
:102FDC008000222222222222FFFFFFFD8732323282
:102FEC0032078888888888888421084210808080ED
:102FFC008000E2000024F4006C00002000000000BF
:10300C00542F0008742F0008342F00080000000013
:10301C0000000000000000000000000000000000A4
:10302C000000000000000000000000000000000094
:10303C000000000000000000000000000000000084
:10304C000000000000000000000000000000000074
:0C305C0000000000000000000000000068
:0400000508001E05CC
:00000001FF
