:020000040800F2
:100000000050002021240008AD210008AF21000885
:10001000B1210008B3210008B5210008000000004C
:10002000000000000000000000000000B7210008F0
:10003000B921000800000000BB210008BD21000814
:10004000692400086924000869240008692400085C
:10005000692400086924000869240008692400084C
:10006000692400086924000869240008692400083C
:10007000692400086924000869240008692400082C
:10008000692400086924000869240008692400081C
:10009000692400086924000869240008692400080C
:1000A00069240008692400086924000869240008FC
:1000B00069240008692400086924000869240008EC
:1000C00069240008692400086924000869240008DC
:1000D00069240008C5210008D5210008692400080A
:1000E0006924000869240008692400080000000051
:1000F0000000000000000000000000000000000000
:0C01000000000000000000005FF808F1A3
:10010C0010B5054C237833B9044B13B10448AFF345
:10011C0000800123237010BDDC00002000000000D3
:10012C007433000808B5034B1BB103490348AFF304
:10013C00008008BD00000000E000002074330008BF
:10014C0080F0004002E000BF81F0004142001FBF80
:10015C005FEA410392EA030F7FEA226C7FEA236C89
:10016C006AD04FEA1262D2EB1363C1BFD21841407E
:10017C0048404140B8BF5B42192B88BF704710F014
:10018C00004F40F4000020F07F4018BF404211F0B7
:10019C00004F41F4000121F07F4118BF494292EA1F
:1001AC00030F3FD0A2F1010241FA03FC10EB0C004B
:1001BC00C3F1200301FA03F100F0004302D54942D8
:1001CC0060EB4000B0F5000F13D3B0F1807F06D385
:1001DC0040084FEA310102F10102FE2A51D2B1F17D
:1001EC00004F40EBC25008BF20F0010040EA030072
:1001FC007047490040EB000010F4000FA2F101021F
:10020C00EDD1B0FA80FCACF1080CB2EB0C0200FAA8
:10021C000CF0AABF00EBC25052421843BCBFD040F6
:10022C001843704792F0000F81F4000106BF80F470
:10023C0000000132013BB5E74FEA41037FEA226C33
:10024C0018BF7FEA236C21D092EA030F04D092F0FE
:10025C00000F08BF0846704790EA010F1CBF002032
:10026C00704712F07F4F04D1400028BF40F000408F
:10027C00704712F100723CBF00F50000704700F0AF
:10028C00004343F0FE4040F4000070477FEA2262D6
:10029C0016BF08467FEA23630146420206BF5FEAA7
:1002AC00412390EA010F40F4800070474FF00003A7
:1002BC0004E000BF10F0004348BF40425FEA000C6E
:1002CC0008BF704743F0964301464FF000001CE016
:1002DC0050EA010208BF70474FF000030AE000BF6C
:1002EC0050EA010208BF704711F0004302D54042AA
:1002FC0061EB41015FEA010C02BF8446014600201C
:10030C0043F0B64308BFA3F18053A3F50003BCFA36
:10031C008CF2083AA3EBC25310DB01FA02FC6344E3
:10032C0000FA02FCC2F12002BCF1004F20FA02F2EA
:10033C0043EB020008BF20F00100704702F12002DD
:10034C0001FA02FCC2F1200250EA4C0021FA02F23E
:10035C0043EB020008BF20EADC7070474FF0FF0C43
:10036C001CEAD0521EBF1CEAD15392EA0C0F93EA3E
:10037C000C0F6FD01A4480EA010C400218BF5FEAE0
:10038C0041211ED04FF0006343EA501043EA511153
:10039C00A0FB01310CF00040B1F5000F3EBF49004D
:1003AC0041EAD3715B0040EA010062F17F02FD2A51
:1003BC001DD8B3F1004F40EBC25008BF20F0010034
:1003CC00704790F0000F0CF0004C08BF49024CEA4B
:1003DC00502040EA51207F3AC2BFD2F1FF0340EADD
:1003EC00C250704740F400004FF00003013A5DDC4E
:1003FC0012F1190FDCBF00F000407047C2F100028F
:10040C00410021FA02F1C2F1200200FA02FC5FEA7B
:10041C00310040F1000053EA4C0308BF20EADC70C5
:10042C00704792F0000F00F0004C02BF400010F437
:10043C00000F013AF9D040EA0C0093F0000F01F0E4
:10044C00004C02BF490011F4000F013BF9D041EA06
:10045C000C018FE70CEAD15392EA0C0F18BF93EA08
:10046C000C0F0AD030F0004C18BF31F0004CD8D132
:10047C0080EA010000F00040704790F0000F17BFB9
:10048C0090F0004F084691F0000F91F0004F14D0FF
:10049C0092EA0C0F01D142020FD193EA0C0F03D157
:1004AC004B0218BF084608D180EA010000F000405A
:1004BC0040F0FE4040F40000704740F0FE4040F435
:1004CC00400070474FF0FF0C1CEAD0521EBF1CEAD4
:1004DC00D15392EA0C0F93EA0C0F69D0A2EB0302F2
:1004EC0080EA010C49024FEA402037D04FF080538C
:1004FC0043EA111143EA10130CF000408B4238BF51
:10050C005B0042F17D024FF4000C8B4224BF5B1A5E
:10051C0040EA0C00B3EB510F24BFA3EB510340EAAC
:10052C005C00B3EB910F24BFA3EB910340EA9C005A
:10053C00B3EBD10F24BFA3EBD10340EADC001B01CA
:10054C0018BF5FEA1C1CE0D1FD2A3FF650AF8B426E
:10055C0040EBC25008BF20F0010070470CF0004C7B
:10056C004CEA50207F32C2BFD2F1FF0340EAC250A6
:10057C00704740F400004FF00003013A37E792F067
:10058C00000F00F0004C02BF400010F4000F013AC5
:10059C00F9D040EA0C0093F0000F01F0004C02BFC0
:1005AC00490011F4000F013BF9D041EA0C0195E729
:1005BC000CEAD15392EA0C0F08D142027FF47DAFC2
:1005CC0093EA0C0F7FF470AF084676E793EA0C0FB2
:1005DC0004D14B023FF44CAF08466EE730F0004CB0
:1005EC0018BF31F0004CCAD130F000427FF45CAF40
:1005FC0031F000437FF43CAF5FE700BF10B5044619
:10060C000E4B18784FF47A73B3FBF0F30C4A106866
:10061C00B0FBF3F000F048F968B90F2C01D90120B8
:10062C000AE0002221464FF0FF3000F0FBF8034BAC
:10063C005C60002000E0012010BD00BF0000002025
:10064C007400002008B5074A136843F010031360C8
:10065C00032000F0D5F80020FFF7D0FF01F080FC5C
:10066C00002008BD00200240034A1168034B1B7890
:10067C000B441360704700BFBC0900200000002031
:10068C00014B1868704700BFBC09002038B5044600
:10069C00FFF7F6FF0546B4F1FF3F02D0044B1B7881
:1006AC001C44FFF7EDFF401BA042FAD338BD00BF3E
:1006BC0000000020002800F0A18038B5044690F816
:1006CC002030D3B12268136823F002031360FFF7C4
:1006DC00D7FF054623685A6812F0020F10D0FFF7B7
:1006EC00CFFF401B0A28F5D9636A43F400336362D9
:1006FC00052384F82030012038BD01F053FCE1E7DC
:10070C001A6842F001021A60FFF7BAFF0546236827
:10071C005A6812F0010F0DD1FFF7B2FF401B0A28E7
:10072C00F5D9636A43F400336362052384F82030FF
:10073C000120E1E7227E012A3DD01A6822F08002D6
:10074C001A60637E012B3BD02268136823F04003B0
:10075C001360A37E012B39D02268136823F0200389
:10076C001360E37E012B37D02268136843F010032B
:10077C001360237F012B35D02268136823F0080304
:10078C001360637F012B33D02268136823F00403BA
:10079C001360A368E268134322691343626913432D
:1007AC006268013A21681343CB6100206062012327
:1007BC0084F82030A0E71A6842F080021A60C0E783
:1007CC002268136843F040031360C2E72268136881
:1007DC0043F020031360C4E72268136823F010036E
:1007EC001360C6E72268136843F008031360C8E778
:1007FC002268136843F004031360CAE701207047B2
:10080C00074AD36823F4E0631B041B0C000200F4BA
:10081C00E060184340F0BF6040F40030D060704797
:10082C0000ED00E030B4174BDB68C3F30223C3F1D7
:10083C000704042C28BF04241D1D062D18D9033BC6
:10084C004FF0FF3505FA04F421EA0401994005FA4A
:10085C0003F322EA0303194300280BDB0901C9B295
:10086C0000F1604000F5614080F8001330BC704727
:10087C000023E5E700F00F000901C9B2024B19543F
:10088C00F4E700BF00ED00E014ED00E0002807DB0A
:10089C0000F01F02400901239340024A42F8203025
:1008AC00704700BF00E100E00138B0F1807F0AD250
:1008BC00064B5860064AF02182F8231000209860FD
:1008CC0007221A6070470120704700BF10E000E05B
:1008DC0000ED00E008B590F82130022B03D0042382
:1008EC008363012008BD0268136823F00E031360B4
:1008FC000268136823F0010313600368194A9342DA
:10090C0014D0143293421FD0143293421ED014329E
:10091C0093421ED0143293421ED01432934202D012
:10092C004FF0807203E04FF4801200E001220E4B76
:10093C005A60012380F82130002380F82030436B6B
:10094C006BB198470020CDE71022F0E74FF480728E
:10095C00EDE74FF48052EAE74FF48032E7E70020EE
:10096C00C0E700BF0800024000000240F0B482B0B3
:10097C0000263246A2E0002D5AD0012D00D1CE68BF
:10098C00FF2B69D88446FF2B69D89500DCF8004012
:10099C000F27AF4024EA070406FA05F52C43CCF8E0
:1009AC0000404C6814F0805F00F087805F4CA569B4
:1009BC0045F00105A561A46904F001040194019CB2
:1009CC009508AF1C5A4C54F8274002F00307BF009F
:1009DC004FF00F0C0CFA07FC24EA0C0C554CA042FF
:1009EC0043D004F58064A04200F0818004F580645B
:1009FC00A0427ED004F58064A04234D0042435E0BB
:100A0C004D4FBD4214D00BD94C4FBD4210D007F501
:100A1C008037BD420CD0A7F58017BD42B0D107E09E
:100A2C00A7F58017BD4203D007F58037BD42A7D18B
:100A3C008D687DB1012D08D044610826A0E7CE68F1
:100A4C0008369DE7CE680C369AE70461082697E7CE
:100A5C00002695E7042693E700F1040C93E7A2F136
:100A6C000805AD0092E7032400E00024BC4044EAF2
:100A7C000C0402352E4F47F825404C6814F4803F87
:100A8C0039D02F4D2C681C432C604C6814F4003F5B
:100A9C0037D02B4D6C681C436C604C6814F4801F71
:100AAC0035D0274DAC681C43AC604C6814F4001F67
:100ABC0033D0234DEC682343EB6001320B6833FADF
:100ACC0002F430D00124944023409C42F5D14D686F
:100ADC00122DB7D094D8022DB1D07FF64CAF032D88
:100AEC00B6D0112D7FF44CAFCE68043648E7012404
:100AFC00BCE70224BAE7124D2C6824EA03042C60EC
:100B0C00C3E70F4D6C6824EA03046C60C5E70C4D19
:100B1C00AC6824EA0304AC60C7E7094DEC6824EA2E
:100B2C000303EB60C9E702B0F0BC70470010024051
:100B3C0000000140000801400000211000003110AD
:100B4C0000040140002800F0BE80F8B5044690F87F
:100B5C003D30002B6BD0242384F83D302268136881
:100B6C0023F00103136000F0CDFB6268584B9A42EE
:100B7C0062D8584B98428CBF00230123002B40F0C5
:100B8C00A480554BA3FB00239B0C21684A6822F0E0
:100B9C003F021A434A6025682A6A22F03F026668BF
:100BAC004B498E424ED8013313432B622568E969B9
:100BBC0021F44F4121F0FF016368454A93424BD821
:100BCC0001385B00B0FBF3F30133C3F30B03042BCD
:100BDC0038BF04230B43EB6121680B6823F0C0037F
:100BEC00E269206A024313430B6021688B6823F48B
:100BFC00034323F0FF032269E068024313438B6035
:100C0C002168CB6823F0FF036269A0690243134398
:100C1C00CB602268136843F001031360002020644A
:100C2C00202384F83D30206384F83E00F8BD80F822
:100C3C003C3001F0F3F98EE7284B98428CBF00232F
:100C4C0001239BE74FF4967101FB03F32449A1FBAD
:100C5C0003139B090133A7E7A268BAB9461E03EB3D
:100C6C004307B6FBF7F60136C6F30B06B6FA86F663
:100C7C00760936BBC2B9013803EB4303B0FBF3F37F
:100C8C000133C3F30B0242F40043A3E7461E03EB0C
:100C9C00830707EB8707B6FBF7F60136C6F30B069F
:100CAC00B6FA86F67609E4E7013803EB830303EB27
:100CBC008303B0FBF3F20132C2F30B0242F4404364
:100CCC0088E7012386E7012070470120AEE700BFCB
:100CDC00A08601007F841E0083DE1B43FF083D00BD
:100CEC00D34D621082B0084B1B68084AA2FB032349
:100CFC005B0A00FB03F0019000BF019B5A1E01929E
:100D0C00002BF9D102B0704774000020D34D621053
:100D1C00002800F0F58170B582B00446036813F02A
:100D2C00010F2CD0AB4B5B6803F00C03042B1DD0D4
:100D3C00A84B5B6803F00C03082B12D06368B3F567
:100D4C00803F41D0002B55D103F1804303F5043390
:100D5C001A6822F480321A601A6822F480221A600F
:100D6C0037E09C4B5B6813F4803FE7D0994B1B68D2
:100D7C0013F4003F03D06368002B00F0C381236899
:100D8C0013F0020F76D0934B5B6813F00C0F5FD00F
:100D9C00904B5B6803F00C03082B54D02369002B99
:100DAC0000F08A808C4B01221A60FFF769FC054623
:100DBC00884B1B6813F0020F75D1FFF761FC401BC9
:100DCC000228F5D90320A0E1824A136843F480334A
:100DDC001360636843B3FFF753FC05467D4B1B68F8
:100DEC0013F4003FCBD1FFF74BFC401B6428F5D923
:100DFC0003208AE1B3F5A02F09D0764B1A6822F4B0
:100E0C0080321A601A6822F480221A60E1E703F13A
:100E1C008043A3F53C331A6842F480221A601A68A6
:100E2C0042F480321A60D4E7FFF72AFC0546694B7E
:100E3C001B6813F4003FA2D0FFF722FC401B642870
:100E4C00F5D9032061E1634B5B6813F4803FA5D1B6
:100E5C00604B1B6813F0020F04D02369012B01D0E7
:100E6C00012052E15B4A136823F0F803616943EAFD
:100E7C00C1031360236813F0080F32D0A369002B51
:100E8C005BD0564B01221A60FFF7FAFB0546514B1B
:100E9C005B6A13F0020F21D1FFF7F2FB401B022813
:100EAC00F5D9032031E14B4A136823F0F80361694B
:100EBC0043EAC1031360DDE7474B00221A60FFF7DA
:100ECC00DFFB0546434B1B6813F0020FD2D0FFF734
:100EDC00D7FB401B0228F5D9032016E10120FFF7B0
:100EEC0001FF236813F0040F00F09880394BDB6985
:100EFC0013F0805F33D1374BDA6942F08052DA61FC
:100F0C00DB6903F080530193019B0125344B1B6873
:100F1C0013F4807F25D0E368012B36D0002B4CD105
:100F2C0003F1804303F504331A6A22F001021A62BA
:100F3C001A6A22F004021A622CE0284B00221A6072
:100F4C00FFF79EFB0546234B5B6A13F0020FC8D0DC
:100F5C00FFF796FB401B0228F5D90320D5E00025AE
:100F6C00D4E71F4A136843F480731360FFF788FBC0
:100F7C0006461B4B1B6813F4807FCCD1FFF780FB1C
:100F8C00801B6428F5D90320BFE0124A136A43F092
:100F9C0001031362E3687BB3FFF772FB06460D4B4C
:100FAC001B6A13F0020F38D1FFF76AFB801B41F26A
:100FBC0088339842F3D90320A7E0052B12D0054BB8
:100FCC001A6A22F001021A621A6A22F004021A62E8
:100FDC00E0E700BF001002400000424280044242A1
:100FEC00007000404C4B1A6A42F004021A621A6AF2
:100FFC0042F001021A62CDE7FFF742FB0646464B70
:10100C001B6A13F0020F08D0FFF73AFB801B41F26A
:10101C0088339842F3D9032077E0E5B9E369002BD4
:10102C0072D03D4A526802F00C02082A56D0022BAC
:10103C0017D03A4B00221A60FFF722FB0446364BBE
:10104C001B6813F0007F47D0FFF71AFB001B022828
:10105C00F5D9032059E0304AD36923F08053D3618A
:10106C00DCE72E4B00221A60FFF70AFB05462A4BE1
:10107C001B6813F0007F06D0FFF702FB401B022811
:10108C00F5D9032041E0236AB3F5803F1AD02249F9
:10109C004B6823F47413226A606A024313434B6057
:1010AC001E4B01221A60FFF7EBFA04461A4B1B6821
:1010BC0013F0007F0ED1FFF7E3FA001B0228F5D9DD
:1010CC00032022E0144A536823F40033A1680B4335
:1010DC005360DCE7002018E0002016E0012B16D04E
:1010EC000D4B5B6803F48031226A914201D00120E0
:1010FC000BE003F47013626A93420AD0012004E0FF
:10110C0001207047012000E0002002B070BD0120DA
:10111C00FBE70020F9E700BF0010024060004242EC
:10112C0010B487B0164C94E80F000DF1180C0CE9B4
:10113C000F00238AADF80430124B5B6803F00C02ED
:10114C00082A1AD1C3F38342624412F8102C13F408
:10115C00803F05D10C4800FB02F007B010BC704773
:10116C00084B5B68C3F34043634413F8143C0748D3
:10117C0000FB02F0B0FBF3F0EFE70448EDE700BF33
:10118C008C3300080010024000093D0000127A0068
:10119C00002800F0A38070B50446524B1B6803F086
:1011AC0007038B420CD24F4A136823F007030B43FF
:1011BC001360136803F007038B4201D0012070BD4C
:1011CC00236813F0020F17D013F0040F04D0464A13
:1011DC00536843F4E0635360236813F0080F04D0A2
:1011EC00414A536843F4605353603F4A536823F0B9
:1011FC00F003A068034353600D46236813F0010FFE
:10120C0031D06368012B20D0022B25D0364A1268CE
:10121C0012F0020F64D034494A6822F003021343DF
:10122C004B60FFF72DFA06462F4B5B6803F00C035F
:10123C006268B3EB820F16D0FFF722FA801B41F2E3
:10124C0088339842F0D90320B9E7274A126812F480
:10125C00003FE0D10120B2E7234A126812F0007F70
:10126C00D9D10120ABE71F4B1B6803F00703AB423E
:10127C000CD91C4A136823F007032B431360136823
:10128C0003F00703AB4201D0012098E7236813F069
:10129C00040F06D0144A536823F4E063E1680B434F
:1012AC005360236813F0080F07D00F4A536823F4D8
:1012BC006053216943EAC1035360FFF731FF0A4BC6
:1012CC005B68C3F30313094AD35CD840084B18601E
:1012DC00084B1868FFF792F9002070E7012070475F
:1012EC0001206CE700200240001002402C34000862
:1012FC007400002004000020014B1868704700BFE8
:10130C007400002008B5FFF7F7FF044B5B68C3F3CC
:10131C000223034AD35CD84008BD00BF0010024032
:10132C003C34000808B5FFF7E7FF044B5B68C3F3D8
:10133C00C223034AD35CD84008BD00BF0010024052
:10134C003C34000810B4036A046A24F001040462FB
:10135C00846924F0F00444EA021223F00A030B43DC
:10136C008261036210BC704710B4036A23F010034F
:10137C0003628469036A24F4704444EA023223F061
:10138C00A00343EA01138261036210BC70478368B7
:10139C0023F07003194341F0070181607047022369
:1013AC0080F83D300268936803F00703062B03D0E6
:1013BC00136843F001031360012380F83D300020D3
:1013CC007047000003681B4A90420AD0B0F1804F6E
:1013DC0007D0A2F59432904203D002F5806290427D
:1013EC0003D123F070034A681343124A90420AD087
:1013FC00B0F1804F07D0A2F59432904203D002F5A1
:10140C008062904203D123F44073CA68134323F0E3
:10141C0080034A69134303608B68C3620B68836261
:10142C00044B984202D00123436170470B6903635C
:10143C00F9E700BF002C0140A8B110B5044690F8A4
:10144C003D305BB1022384F83D30211D2068FFF74D
:10145C00B9FF012384F83D30002010BD80F83C30EA
:10146C0000F00EFEEEE70120704710B4846824F4FF
:10147C007F4442EA03230B432343836010BC704731
:10148C0090F83C30012B66D010B50446012380F84F
:10149C003C30022380F83D300268936823F47F438C
:1014AC0023F0770393600B68402B4AD013D9602B41
:1014BC003DD01ED9702B28D0B3F5005F30D1CB684E
:1014CC004A6889680068FFF7D0FF2268936843F484
:1014DC008043936024E0102B06D004D9202B03D03A
:1014EC00302B01D01CE0DBB919462068FFF74FFF09
:1014FC0016E0502B14D1CA6849680068FFF722FF28
:10150C0050212068FFF743FF0AE0CB684A688968DE
:10151C000068FFF7AAFF2268936843F07703936093
:10152C00012384F83D30002084F83C0010BDCA68CB
:10153C0049680068FFF718FF60212068FFF727FF54
:10154C00EEE7CA6849680068FFF7FCFE4021206896
:10155C00FFF71DFFE4E70220704790F83C30012BA9
:10156C001CD070B4012680F83C60022380F83D301A
:10157C0002685568936825F070050C682C4323F0BD
:10158C0080054B682B4354600268936080F83D6083
:10159C00002380F83C30184670BC7047022070471E
:1015AC000268D36823F49073D3600268536923F004
:1015BC0001035361202380F83A30704790F839309A
:1015CC00DBB2212B2AD18368B3F5805F16D0036A76
:1015DC005A1C02621A7803685A60C38C013B9BB296
:1015EC00C384EBB90268D36823F08003D36002682C
:1015FC00D36843F04003D36000207047036A1B8814
:10160C000268C3F30803536003691BB9036A02330E
:10161C000362E2E7036A01330362DEE702207047EC
:10162C000020704738B504460268136923F4405310
:10163C00C1680B43136183680269134342691A43FF
:10164C000168CB6823F4B05323F00C031343CB6035
:10165C000268536923F4407381690B435361026838
:10166C00214B9A421FD0FFF74DFE00EB800000EBA0
:10167C00800063689B00B0FBF3F01C4DA5FB0032AF
:10168C005109642202FB110213013233A5FB03231F
:10169C005B0903F0F00202EB011203F00F03216867
:1016AC0013448B6038BDFFF73DFE00EB800000EB70
:1016BC00800063689B00B0FBF3F00C4DA5FB00327F
:1016CC005109642202FB110213013233A5FB0323DF
:1016DC005B0903F0F00202EB011203F00F03216827
:1016EC0013448B60DEE700BF003801401F85EB51CF
:1016FC0058B310B5044690F839300BB3242384F852
:10170C0039302268D36823F40053D3602046FFF7A6
:10171C0089FF2268136923F490431361226853698B
:10172C0023F02A0353612268D36843F40053D36037
:10173C000020E063202384F8393084F83A3010BD5F
:10174C0080F8383000F0B2FCD8E70120704790F8F0
:10175C003930DBB2202B16D1B9B1C2B190F8383088
:10176C00012B16D001628284C2840023C363212220
:10177C0080F8392080F838300168CA6842F080025D
:10178C00CA6018467047022070470120704701203C
:10179C0070470220704790F83A30DBB2202B20D1F2
:1017AC0009B312B390F83830012B20D081628285B6
:1017BC00C2850023C363222280F83A2080F8383097
:1017CC000168CA6842F48072CA6001684A6942F0D2
:1017DC0001024A610168CA6842F02002CA601846D8
:1017EC00704702207047012070470120704702208B
:1017FC00704708B50168CB6823F04003CB60202309
:10180C0080F8393000F0CAFD002008BD08B590F80A
:10181C003A30DBB2222B45D18368B3F5805F0ED012
:10182C00036903BB03685A68836A591C81621A7086
:10183C00C38D013B9BB2C385F3B1002033E0826AB8
:10184C00036943B903685B68C3F308031380836AB5
:10185C0002338362ECE703685B68DBB21380836A54
:10186C0001338362E4E703685B68826A511C81621E
:10187C0003F07F031370DBE70268D36823F02003C7
:10188C00D3600268D36823F48073D3600268536911
:10189C0023F001035361202380F83A3000F064FDFB
:1018AC00002000E0022008BD7047000010B504467F
:1018BC0002681368D168526913F00F0005D113F058
:1018CC00200F02D011F0200F53D1002867D012F056
:1018DC00010202D111F4907F61D013F0010F06D0F8
:1018EC0011F4807F03D0E06B40F00100E06313F053
:1018FC00040F04D01AB1E06B40F00200E06313F067
:10190C00020F04D01AB1E06B40F00400E06313F056
:10191C00080F04D01AB1E26B42F00802E263E26BEA
:10192C00002A48D013F0200F02D011F0200F24D140
:10193C0023685B6903F04003E26B12F0080F00D1DF
:10194C003BB32046FFF72CFE23685A6912F0400F78
:10195C001BD05A6922F040025A61636B8BB11A4A50
:10196C005A63606BFEF7B6FF28B3606B436B984706
:10197C0021E02046FFF74AFF1DE02046FFF746FF17
:10198C00D6E72046FFF790FF15E02046FFF78CFFC7
:10199C0011E02046FFF788FF0023E3630BE013F010
:1019AC00800F02D011F0800F06D113F0400F02D03F
:1019BC0011F0400F04D110BD2046FFF7FFFDFAE7F0
:1019CC002046FFF716FFF6E7D919000808B5406A5C
:1019DC000023C385C384FFF767FF08BD30B4002420
:1019EC00234603E013449BB209E00134A1420BDD12
:1019FC00025DD518AB42F5DDABB201339BB2FF2BC8
:101A0C00F3D9FF3B9BB2F0E7D843C0B230BC704770
:101A1C0010B5064CA070E1700321601CFFF7DEFFCF
:101A2C0020710521204600F045FC10BD0800002067
:101A3C0010B5074CA072022104F10900FFF7CEFF8C
:101A4C00E072042104F1080000F034FC10BD00BF6A
:101A5C000800002010B507280ED0092816D005283C
:101A6C0000D010BD114805234373FA23837303215F
:101A7C000C3000F01FFCF4E70C4807234373F823E9
:101A8C00837303210C3000F015FCEAE7074C0923A3
:101A9C006373A173022104F10D00FFF79FFFE07344
:101AAC00042104F10C0000F005FCDAE7080000202A
:101ABC0010B507280AD009280AD005280AD0002119
:101ACC00054C204600F030FC204610BD8221F7E783
:101ADC000321F5E70621F3E7F800002038B50024D0
:101AEC00254602E040250134E4B25A2C10D83C20A3
:101AFC00FEF7CCFD1F4B195D2846FFF789FF2B2DF8
:101B0C00F0D04D2D02D00135EDB2ECE75F25EAE7C0
:101B1C004C210920FFF79EFF0120FEF7B7FD09209D
:101B2C00FFF7C6FF0278437813F00F0318BF0123A9
:101B3C00402A18BF43F00103CBB94D210920FFF710
:101B4C0089FF0120FEF7A2FD0920FFF7B1FF027803
:101B5C00437813F07F0318BF0123402A18BF43F0CA
:101B6C0001030BB9002038BD4FF0FF30FBE74FF0FD
:101B7C00FF30F8E71800002010B504461523436029
:101B8C00FFF75AFC38B92046FFF709FC002140202A
:101B9C00FFF73EFF10BD00F04DF9F4E710B5044619
:101BAC00431E9BB2082B03D8194B93F8823093B188
:101BBC004FF233339C4204D9154B93F88230012BEE
:101BCC0013D04FF6F0739C4204D9114B93F882302A
:101BDC00022B13D010BD0120FFF72AFF0C4B012262
:101BEC0083F8822000F0B8FBE2E700210520FFF724
:101BFC0031FF074B022283F88220E2E70520FFF732
:101C0C0057FF00F0B1F8024B002283F88220E1E785
:101C1C00F800002072B6704762B6704782B00A4B6B
:101C2C009A6942F004029A619A6902F004020092E5
:101C3C00009A9A6942F008029A619B6903F00803C2
:101C4C000193019B02B070470010024008B5084890
:101C5C00084B03604FF4E133436000238360C3609F
:101C6C0003610C2242618361C361FFF741FD08BD32
:101C7C00440A00200038014008B50848084B0360AE
:101C8C004FF4E133436000238360C36003610C2293
:101C9C0042618361C361FFF72BFD08BDCC0A0020B4
:101CAC000044004008B50B480B4B0360082343600D
:101CBC0000238360C3604FF4302202614FF4801222
:101CCC004261037643768376C37603774377FEF7D8
:101CDC00F1FC08BD180A00200064004008B5094852
:101CEC00094B0360094B436000238360C3604FF4CE
:101CFC008042026143618361C3610362FEF722FF8C
:101D0C0008BD00BFC409002000540040A08601009B
:101D1C0030B587B000240294039404940594009485
:101D2C0001940F4D0F4B2B6015236B60AC604FF67D
:101D3C00FF73EB602C616C61AC612846FFF77CFB98
:101D4C004FF48053029302A92846FFF799FB0094A5
:101D5C00019469462846FFF700FC07B030BD00BF70
:101D6C00880A0020002C014008B54278807840EAAF
:101D7C000220FEF79FFA0449FEF7F0FA0349FEF73A
:101D8C00A1FB034B186008BD000096430024F449E6
:101D9C00400A002030B591B02022002107A800F0A5
:101DAC00B9FB002401940294039404940594022535
:101DBC00069501230A9310230B930D954FF45013A2
:101DCC000F9306A8FEF7A4FF0F230193029503942B
:101DDC004FF4A06304930594294601A8FFF7D8F9A2
:101DEC0011B030BD08B5FEF72DFCFFF7D3FFFFF7A0
:101DFC0015FFFFF72BFFFFF73FFFFFF753FFFFF731
:101E0C006DFFFFF785FF00F0E9FAFFF767FE064864
:101E1C00FFF7B2FE054C606A80B2FFF7BFFE626A44
:101E2C00034B1A80F6E700BF880A0020002C014003
:101E3C00C80A00207047000008B548B171B19AB1CA
:101E4C004160026000228260C2600261012008BD14
:101E5C00084B094A0F21094800F002FB084B064ABF
:101E6C001021064800F0FCFA064B034A11210348E6
:101E7C0000F0F6FA94340008A0330008A0340008EF
:101E8C00B8340008C434000808B528B10022026137
:101E9C008260C260012008BD024B034A2221034824
:101EAC0000F0DEFA94340008B0330008A0340008C7
:101EBC0008B598B1034600691A68904217DA586859
:101ECC009A68815499681A68013A91420CD0013190
:101EDC0099601A6901321A61012008BD054B064A46
:101EEC004F21064800F0BCFA00229A60F1E700206E
:101EFC00F3E700BF9434000804340008A034000851
:101F0C0008B5A0B10346C1B10269002A1EDD4068C4
:101F1C00DA68825C0A70D9681A68013A914212D068
:101F2C000131D9601A69013A1A61012008BD084BC8
:101F3C00084A6321084800F093FA084B054A6421CB
:101F4C00054800F08DFA0022DA60EBE70020EDE79F
:101F5C009434000818340008A0340008D834000861
:101F6C0082B00E4B9A6942F001029A619A6902F0B2
:101F7C0001020092009ADA6942F08052DA61DB6960
:101F8C0003F080530193019B054A536823F0E063EF
:101F9C0043F00073536002B0704700BF0010024062
:101FAC000000014030B587B00023029303930493E3
:101FBC0005930268174B9A4201D007B030BD03F568
:101FCC00D633DA6942F00072DA61DA6902F0007233
:101FDC000092009A9A6942F004029A619B6903F09C
:101FEC0004030193019B06AC4FF4006344F8103DCD
:101FFC00094D21462846FEF7B9FC4FF48053029355
:10200C00022303930323059321462846FEF7AEFCD7
:10201C00D3E700BF006400400008014010B586B053
:10202C00002302930393049305930268114B9A4285
:10203C0001D006B010BD104CA36943F00803A36196
:10204C00A36903F008030093009BC023029312239F
:10205C0003930323059302A90848FEF787FCE36961
:10206C0043F40013E361E36903F400130193019B50
:10207C00DFE700BF0054004000100240000C01409C
:10208C000268094B9A4200D0704782B003F5644352
:10209C009A6942F400629A619B6903F400630193AC
:1020AC00019B02B0704700BF002C014030B589B0D5
:1020BC00002304930593069307930368344A9342D1
:1020CC0004D0344A934233D009B030BD324B9A69B4
:1020DC0042F480429A619A6902F480420092009A1A
:1020EC009A6942F004029A619B6903F0040301931C
:1020FC00019B4FF40073049302230593032307936E
:10210C00264D04A92846FEF731FC4FF48063049356
:10211C0000240594069404A92846FEF727FC2246C1
:10212C0021462520FEF77EFB2520FEF7AFFBCBE7F3
:10213C00194BDA6942F40032DA61DA6902F40032DE
:10214C000292029A9A6942F004029A619B6903F026
:10215C0004030393039B0423049302230593032397
:10216C0007930E4D04A92846FEF700FC08230493A0
:10217C0000240594069404A92846FEF7F7FB224692
:10218C0021462620FEF74EFB2620FEF77FFB9BE721
:10219C00003801400044004000100240000801409B
:1021AC007047FEE7FEE7FEE7FEE7704770477047B3
:1021BC0008B5FEF759FA08BD08B50248FFF776FBDB
:1021CC0008BD00BF440A002008B50248FFF76EFBAB
:1021DC0008BD00BFCC0A00200120704708B500F0F4
:1021EC005DF9162303604FF0FF3008BD08B54FF0C2
:1021FC00FF31FFF7F3FFFEE770B50D4616460024DE
:10220C0004E0AFF30080287001340135B442F8DBF0
:10221C00304670BD08B503460B4A126842B10A4AF3
:10222C00106803446A46934206D8074A136008BDF7
:10223C00054A06491160F2E700F030F90C230360FF
:10224C004FF0FF30F3E700BF7C010020100B0020A3
:10225C004FF0FF3070474FF400534B600020704735
:10226C0001207047002070470F4B1A6842F00102A2
:10227C001A6059680D4A0A405A601A6822F0847232
:10228C0022F480321A601A6822F480221A605A688A
:10229C0022F4FE025A604FF41F029A60044B4FF076
:1022AC0000629A60704700BF001002400000FFF807
:1022BC0000ED00E070B506460D460024AC420ED28F
:1022CC00FFF7A8FC315D1248FFF7F2FD18B1FFF7DC
:1022DC00A3FC0134F2E7FFF79FFC002406E0FFF7B4
:1022EC0099FC0B4B1B7D1BB1FFF796FC204670BD78
:1022FC00074D05F1150631462846FFF701FE012270
:10230C0031460448FFF723FA01232B75ECE700BF95
:10231C0084010020440A002010B5084614461146DA
:10232C00FFF7C8FF204610BD70B506460D460024C9
:10233C00AC420CD2FFF76EFC31190648FFF7E0FDFA
:10234C0018B1FFF769FC0134F2E7FFF765FC204692
:10235C0070BD00BF9C01002008B50248FFF794FD3A
:10236C0008BD00BF9C01002002680A4B1B689A4202
:10237C0000D0704710B5084C94F82C1004F11800DC
:10238C00FFF796FD012204F12C010248FFF703FA36
:10239C0010BD00BF440A00208401002002680D4BD0
:1023AC001B689A4200D0704710B50B4800F12D0104
:1023BC00FFF7A6FD18B9084B00221A7510BD064C84
:1023CC00012204F12D010348FFF7C1F90123237504
:1023DC00F4E700BF440A00208401002010B50B4C28
:1023EC004FF4806204F130012046FFF725FD4FF4D5
:1023FC00806204F5866104F11800FFF71DFD0122CF
:10240C0004F12C010248FFF7C6F910BD840100202D
:10241C00440A0020002103E00B4B5B58435004316D
:10242C000A480B4B42189A42F6D30A4A02E00023A0
:10243C0042F8043B084B9A42F9D3FFF715FF00F022
:10244C0045F8FFF7CFFC7047B835000800000020B6
:10245C00DC000020DC000020100B0020FEE7000058
:10246C001FB51C46094B05461B68D86852B1084B72
:10247C00CDE9013200912B462246064900F014F8B2
:10248C0000F0D6FB044B1A46F2E700BF78000020A0
:10249C00DC340008E934000817350008014B1868D3
:1024AC00704700BF780000200EB403B5014603ABA3
:1024BC00054853F8042B0068019300F05BF802B058
:1024CC005DF804EB03B070477800002070B5002570
:1024DC000C4E0D4CA41BA410A54209D100F044FFD6
:1024EC0000250A4E0A4CA41BA410A54205D170BDB0
:1024FC0056F8253098470135EEE756F825309847C1
:10250C000135F2E7B0350008B0350008B0350008E9
:10251C00B435000803460244934200D1704703F8D7
:10252C00011BF9E7936810B4013B002B936007DAA9
:10253C009469A34201DB0A2902D110BC00F0B8BA9D
:10254C001368581C10601970084610BC7047F8B519
:10255C0006460F461446D518AC4201D1002007E0C0
:10256C003A4614F8011B3046FFF7DCFF431CF3D14D
:10257C00F8BD00002DE9F04F0C469DB017461D46E6
:10258C00064618B183690BB900F04AFC7C4B9C429F
:10259C0058D17468A38918075ED52369002B5BD0CA
:1025AC000023099320238DF8293030234FF0010BA1
:1025BC008DF82A300395B846454615F8013B0BB10A
:1025CC00252B54D1B8EB070A0BD053463A4621467B
:1025DC003046FFF7BCFF013000F0C280099B53442A
:1025EC00099398F80030002B00F0BA8000234FF0CC
:1025FC00FF32CDE90523049307938DF853301A93DA
:10260C00A846052218F8011B5E4800F0F7FC049B55
:10261C0078BBD90644BF20228DF853201A0744BF3B
:10262C002B228DF853202A782A2A2AD0A84600205B
:10263C000A25079A414611F8013B303B092B69D911
:10264C0060B324E0504B9C4201D1B468A2E74F4BDD
:10265C009C4208BFF4689DE72146304600F07AFAA8
:10266C0000289DD04FF0FF301DB0BDE8F08FA8467C
:10267C00A2E7444A4546801A0BFA00F0184304902E
:10268C00BEE7039A111D12680391002A01DB079221
:10269C0004E0524243F002030792049398F800308E
:1026AC002E2B0ED198F801302A2B38D1039B08F130
:1026BC0002081A1D1B680392002BB8BF4FF0FF33A2
:1026CC000593334D032298F80010284600F096FC31
:1026DC0040B14023401B03FA00F0049B08F10108B1
:1026EC000343049398F8001006222A4808F10107C6
:1026FC008DF8281000F082FC002837D0264B1BBB2D
:10270C00039B073323F0070308330393099B4B44C4
:10271C00099350E705FB0232012088468AE7002323
:10272C000A25194608F101080593404610F8012BBB
:10273C00303A092A03D9002BC3D00591C1E705FB18
:10274C00012101238046F0E703AB00932246134B93
:10275C0004A93046AFF30080B0F1FF3F8146D5D1DC
:10276C00A3895B063FF57EAF09987DE703AB009329
:10277C0022460A4B04A9304600F088F8ECE700BF6B
:10278C00703500081C3500089035000850350008DD
:10279C002235000826350008000000005B250008E3
:1027AC002DE9F04791461F468A680B69064693420D
:1027BC00B8BF1346C9F8003091F843200C46DDF839
:1027CC00208012B10133C9F800302368990642BF4A
:1027DC00D9F800300233C9F80030256815F0060529
:1027EC0007D104F1190AE368D9F800209B1AAB420F
:1027FC0029DC94F843302268003318BF0123920679
:10280C002ED404F1430239463046C047013021D062
:10281C002368E56803F00603042B18BF0025D9F8DC
:10282C0000204FF0000908BFAD1AA368226908BF49
:10283C0025EAE5759342C4BF9B1AED181A344D4531
:10284C001AD1002008E00123524639463046C047D1
:10285C00013003D14FF0FF30BDE8F0870135C2E7FE
:10286C003020E11881F843005A1C94F8451022449A
:10287C00023382F84310C4E701232246394630461E
:10288C00C0470130E6D009F10109D8E72DE9F04342
:10289C0001F1430C0C46097E85B06E29174606469D
:1028AC0098460C9A00F0B38022D8632936D00AD807
:1028BC00002900F0B980582900F0838004F142050A
:1028CC0084F8421032E0642901D06929F6D12068DD
:1028DC001368050603F104012AD51B681160002B4F
:1028EC0003DA2D225B4284F843206F480A2239E038
:1028FC00732900F09D8008D86F2920D07029DDD174
:10290C00236843F02003236003E0752917D078294E
:10291C00D4D17823654884F8453055E0136804F128
:10292C004205191D1B68116084F8423001238CE0AC
:10293C001B6810F0400F116018BF1BB2CFE7136873
:10294C002568181D1060280601D51B6802E0680672
:10295C00FBD51B886F2914BF0A220822524800217C
:10296C0084F843106568002DA560C0F2958021683D
:10297C0021F004012160002B3DD1002D40F08E8010
:10298C006546082A0BD12368DB0708D523696268E2
:10299C009A42DEBF302305F8013C05F1FF35ACEB64
:1029AC0005032361CDF800803B4603AA214630463F
:1029BC00FFF7F6FE01304DD14FF0FF3005B0BDE80A
:1029CC00F083394884F84510136821681D1D1B6875
:1029DC0015600A060BD5CA0744BF41F020012160DF
:1029EC001BB9226822F0200222601022B7E74D06A4
:1029FC0048BF9BB2EFE76546B3FBF2F102FB113324
:102A0C00C35C05F8013D0B460029F5D1B9E7136805
:102A1C002568181D6169106028061B6801D51960AE
:102A2C0002E06A06FBD51980002365462361B9E7ED
:102A3C001368191D11601D6862680021284600F09A
:102A4C00DDFA08B1401B606063682361002384F8E1
:102A5C004330A7E723692A4639463046C047013040
:102A6C00AAD023689B0713D4E068039B9842B8BF95
:102A7C001846A3E701234A4639463046C047013081
:102A8C009AD00135E368039A9B1AAB42F2DCEBE770
:102A9C00002504F11909F5E7002BACD1037804F1FA
:102AAC00420584F842306CE72D3500083E350008AD
:102ABC00F8B50E461446054618B183690BB900F0FB
:102ACC00AFF9214B9C422AD16C68A369A360A389FE
:102ADC001A072ED5236963B323692068F6B2C01A8E
:102AEC0063693746834204DC2146284600F02EF900
:102AFC0028BBA3680130013BA36023685A1C2260E9
:102B0C001E706369834204D0A389DB0719D50A2E92
:102B1C0017D12146284600F019F990B10FE00B4B64
:102B2C009C4201D1AC68D0E7094B9C4208BFEC68D1
:102B3C00CBE72146284600F00DF80028CCD04FF00A
:102B4C00FF373846F8BD00BF7035000890350008D7
:102B5C0050350008324B70B51D6806460C4625B141
:102B6C00AB6913B9284600F05BF92E4B9C420FD190
:102B7C006C68B4F90C309AB215072CD4D00611D469
:102B8C000922326043F04003A3814FF0FF303EE056
:102B9C00254B9C4201D1AC68EBE7244B9C4208BF0F
:102BAC00EC68E6E7510712D5616B41B104F14403BF
:102BBC00994202D0304600F02FFA00236363A389B8
:102BCC0023F02403A3810023636023692360A3897A
:102BDC0043F00803A38123694BB9A38903F4207341
:102BEC00B3F5007F03D02146304600F0C7F9A28927
:102BFC0012F001030CD00023A36063695B42A36154
:102C0C00236953B9B4F90C3013F08000BAD170BDFC
:102C1C00920758BF6369A360F2E70020F7E700BF93
:102C2C0078000020703500089035000850350008F9
:102C3C0008B5062000F0CEFA0120FFF7D7FA000005
:102C4C008A892DE9F041054610070C4658D44B688B
:102C5C00002B05DC0B6C002B02DC0020BDE8F081A6
:102C6C00E66A002EF9D0002312F480522F68216AF4
:102C7C002B6032D0606DA3895A0705D56368C01AE2
:102C8C00636B0BB1236CC01A00230246E66A216AFF
:102C9C002846B047431CA38906D129681D2948D86A
:102CAC00294ACA40D60744D5002262602269D90459
:102CBC00226004D5421C01D12B6803B96065616B9D
:102CCC002F600029C9D004F14403994202D0284650
:102CDC0000F0A2F900206063C0E701232846B0474A
:102CEC00411CC8D12B68002BC5D01D2B01D0162B35
:102CFC0001D12F60B1E7A38943F04003A381ADE775
:102D0C000F69002FA9D0930718BF00230E6808BFC6
:102D1C004B69A6EB07080F608B60B8F1000F9CDDC8
:102D2C0043463A46216A2846A66AB047002806DC84
:102D3C00A38943F04003A3814FF0FF308EE7074493
:102D4C00A8EB0008E9E700BF0100402038B50B698B
:102D5C0005460C46DBB118B183690BB900F060F87D
:102D6C000C4B9C4209D16C68B4F90C307BB12146F8
:102D7C002846BDE83840FFF763BF074B9C4201D1A2
:102D8C00AC68F1E7054B9C4208BFEC68ECE700200F
:102D9C0038BD00BF7035000890350008503500086C
:102DAC00002310B50446C0E900338360818143667B
:102DBC00C281C0E904338361194608225C30FFF7F5
:102DCC00A9FB054B24626362044BA362044BE362D0
:102DDC00044B236310BD00BF193200083B320008BE
:102DEC007332000897320008014900F085B800BF23
:102DFC00592D000870B568254A1E55430E4605F13D
:102E0C00740100F055F9044640B10021C0E90016E8
:102E1C000C30A06005F16802FFF77CFB204670BD0A
:102E2C00836910B5044633BBC0E912330365124BFA
:102E3C00124A1B688262984204BF0123836100F02E
:102E4C001FF86060204600F01BF8A060204600F0E0
:102E5C0017F80022E06004216068FFF7A1FF01224F
:102E6C000921A068FFF79CFF02221221E068FFF7FE
:102E7C0097FF0123A36110BD18350008F52D00083C
:102E8C00F8B51B4B07461E68B36913B93046FFF7FC
:102E9C00C7FF4836D6E90134013B03D5336833B15B
:102EAC003668F7E7B4F90C506DB16834F4E70421D7
:102EBC003846FFF79FFF30600028F1D10C23044601
:102ECC003B602046F8BD0B4B6566C4E90055A56018
:102EDC00C4E90335C4E905550822294604F15C0010
:102EEC00FFF718FBC4E90D55C4E91255E9E700BF1B
:102EFC00183500080100FFFF2DE9F843804689468C
:102F0C00002600F1480414B93046BDE8F883D4E932
:102F1C000175013F01D52468F5E7AB89012B07D971
:102F2C00B5F90E30013303D029464046C847064355
:102F3C006835EEE770B50E46B1F90E1096B0002963
:102F4C0014461D4607DA00232B60B3891A0610D4E9
:102F5C004FF480630EE06A4600F0BEF90028F2DB05
:102F6C00019A02F47042A2F500535A425A412A6067
:102F7C00EEE740230020236016B070BD8B8973B53B
:102F8C009D0706460C4607D504F1470323602361D1
:102F9C000123636102B070BD01AB6A46FFF7CAFF43
:102FAC0000990546304600F083F848B9B4F90C3066
:102FBC009A05EFD423F0030343F00203A381E3E764
:102FCC000D4BB362A389206043F08003A381009B67
:102FDC0020616361019B5BB1B4F90E10304600F0C7
:102FEC008DF928B1A38923F0030343F00103A381D6
:102FFC00A3891D43A581CDE7F52D000810B5C9B2F5
:10300C0002449042034601D1002303E01C780130B6
:10301C008C42F6D1184610BD38B50546002943D070
:10302C0051F8043C0C1F002BB8BFE41800F088F9D1
:10303C001E4A1368104633B9636014602846BDE815
:10304C00384000F07EB9A3420BD921686218934234
:10305C0001BF1A685B685218226063600460EDE778
:10306C0013465A680AB1A242FAD919685818A042F4
:10307C000BD120680144581882421960DED11068C7
:10308C005268014419605A60D8E702D90C232B60AE
:10309C00D4E7206821188A4201BF116852680918C8
:1030AC00216062605C60C9E738BD00BFB4090020D4
:1030BC0070B5CD1C25F0030508350C2D38BF0C253B
:1030CC00002D064601DBA94203D90C2333600020F6
:1030DC0070BD00F035F9214A1468214691B9204C95
:1030EC0023681BB9304600F03DF820602946304675
:1030FC0000F038F8431C24D10C233046336000F028
:10310C0020F9E4E70B685B1B18D40B2B0FD90B6071
:10311C00CC18CD50304600F014F904F10B00231DEF
:10312C0020F00700C31AD3D05A42E250D0E74B68C4
:10313C008C4216BF636013600C46EBE70C46496883
:10314C00CCE7C41C24F00304A04205D0211A30465D
:10315C0000F008F80130CFD02560DBE7B40900207F
:10316C00B809002038B50023054C054608462360F5
:10317C00FFF750F8431C02D1236803B12B6038BD14
:10318C000C0B00201F2938B504460D4604D9162314
:10319C0003604FF0FF3038BD426C12B152F8213051
:1031AC004BB9204600F030F82A4601462046BDE8CF
:1031BC00384000F017B8012B0AD0591C03D1162344
:1031CC0003600120E7E70024284642F82540984791
:1031DC000020E0E7024B01461868FFF7D3BF00BFA1
:1031EC007800002038B50023064C054608461146E9
:1031FC002360FEF7F3FF431C02D1236803B12B605D
:10320C0038BD00BF0C0B0020FEF7E6BF10B50C4616
:10321C00B1F90E1000F096F80028ABBF636DA389CE
:10322C001B1823F48053ACBF6365A38110BD2DE93B
:10323C00F0411F468B890546DB050C46164605D525
:10324C0002230022B1F90E1000F068F8A38932466F
:10325C0023F48053A381B4F90E103B462846BDE8F5
:10326C00F04100F017B810B50C46B1F90E1000F093
:10327C0055F8431CA38915BF606523F4805343F4B0
:10328C008053A38118BFA38110BDB1F90E1000F0BB
:10329C0013B8000038B50546084611460022054C07
:1032AC0022601A46FFF738F8431C02D1236803B199
:1032BC002B6038BD0C0B002038B50023054C05469F
:1032CC0008462360FEF7C4FF431C02D1236803B1F8
:1032DC002B6038BD0C0B002038B50023064C05467E
:1032EC00084611462360FEF7B6FF431C02D1236843
:1032FC0003B12B6038BD00BF0C0B002038B5002388
:10330C00054C054608462360FEF7AAFF431C02D174
:10331C00236803B12B6038BD0C0B002038B5054673
:10332C00084611460022054C22601A46FEF79AFF09
:10333C00431C02D1236803B12B6038BD0C0B002059
:10334C007047704738B50546084611460022054CB3
:10335C0022601A46FEF750FF431C02D1236803B1CA
:10336C002B6038BD0C0B0020F8B500BFF8BC08BCB6
:10337C009E467047F8B500BFF8BC08BC9E46704727
:10338C0002030405060708090A0B0C0D0E0F10109A
:10339C000102000052696E674275666665725F498C
:1033AC006E69740052696E674275666665725F433A
:1033BC006C6561720000000052696E67427566664A
:1033CC0065725F4973456D707479000052696E6760
:1033DC004275666665725F4765744C656E000000E9
:1033EC0052696E674275666665725F4765744361C4
:1033FC00706163697479000052696E674275666624
:10340C0065725F50757443686172000052696E6733
:10341C004275666665725F47657443686172000049
:10342C000000000000000000010203040607080968
:10343C00000000000102030441535345525420453F
:10344C0052524F5220696E2066696C65202573209C
:10345C006174206C696E652025642E0A4578707243
:10346C00657373696F6E3A2025730A476F696E67CF
:10347C0020696E746F20696E66696E697465206C64
:10348C006F6F702E0A00000072696E674275666677
:10349C00657200002E2E2F5372632F72696E675F58
:1034AC006275666665722E6300000000646174616B
:1034BC004275666665720000646174614275666689
:1034CC00657253697A65203E20300000630000006D
:1034DC002C2066756E6374696F6E3A20006173738D
:1034EC00657274696F6E2022257322206661696C87
:1034FC0065643A2066696C6520222573222C206C49
:10350C00696E65202564257325730A007C000020F4
:10351C00232D302B2000686C4C00656667454647B0
:10352C000030313233343536373839414243444533
:10353C0046003031323334353637383961626364A2
:10354C0065660000000000000000000000000000A4
:10355C00000000000000000000000000000000005F
:10356C00000000000000000000000000000000004F
:10357C00000000000000000000000000000000003F
:10358C00000000000000000000000000000000002F
:10359C00000000000000000000000000000000001F
:0435AC00000000001B
:0435B00031010008DD
:0435B4000D010008FD
:1035B8000100000010000000550A00000000000093
:1035C8005500000055000000000000000000000049
:1035D80000000000000000000000000096AAAA6198
:1035E80086186040328001107F402900EE7C4F0031
:1035F8000018185000858DF9A5032D7E6700CD00B1
:103608008000222222222222FFFFFFFD873232324F
:1036180032078888888888888421084210808080BA
:103628008000E2000024F4007C000020000000007C
:10363800703500089035000850350008000000007B
:103648000000000000000000000000000000000072
:103658000000000000000000000000000000000062
:103668000000000000000000000000000000000052
:103678000000000000000000000000000000000042
:0C36880000000000000000000000000036
:0400000508002421AA
:00000001FF
